:100000000C944D0F0C947A0F0C947A0F0C947A0F79
:100010000C947A0F0C947A0F0C947A0F0C947A0F3C
:100020000C947A0F0C947A0F0C947A0F0C947A0F2C
:100030000C947A0F0C9437E70C947A0F0C947A0F87
:100040000C947A0F0C9448820C947A0F0C947A0FCB
:100050000C947A0F0C947A0F0C9499900C9484E37E
:100060000C947A0F0C943F2D0C947A0F0C947A0F09
:100070000C947A0F0C947A0F0C947A0F0C947A0FDC
:100080000C947A0F0C947A0F0C947A0F0C947A0FCC
:100090000C947A0F0C947A0F0C947A0F0C940BE05A
:1000A0000C947A0F0C947A0F0C947A0F0C947A0FAC
:1000B0000C947A0F0C947A0F0C947A0F0C947A0F9C
:1000C0000C947A0F0C947A0F0C947A0F0C947A0F8C
:1000D0000C947A0F0C947A0F0C947A0F0C947A0F7C
:1000E0000C947A0F084AD73B3BCE016E84BCBFFD0F
:1000F000C12F3D6C74319ABD56833DDA3D00C77FF8
:1001000011BED9E4BB4C3E916BAAAABE0000008090
:100110003F05A84CCDB2D44EB93836A9020C50B91F
:10012000918688083CA6AAAA2ABE000000803F4DFE
:10013000383420582059205A20450043616E6E6F94
:100140007420656E746572207375626469723A20FA
:10015000004D3234004D3233202573006175746FC9
:1001600025692E67006572726F72207772697469F3
:100170006E6720746F2066696C65004E6F74205343
:1001800044207072696E74696E67002F00534420BA
:100190007072696E74696E67206279746520002ED2
:1001A0000044656C6574696F6E206661696C656496
:1001B0002C2046696C653A200046696C65206465B0
:1001C0006C657465643A002E006F70656E20666120
:1001D000696C65642C2046696C653A200057726929
:1001E00074696E6720746F2066696C653A20002E12
:1001F000006F70656E206661696C65642C204669CD
:100200006C653A20002E006F70656E206661696C27
:1002100065642C2046696C653A200046696C65204F
:1002200073656C6563746564002053697A653A2070
:100230000046696C65206F70656E65643A20002E1B
:10024000006F70656E206661696C65642C2046697C
:100250006C653A20004E6F77206672657368206681
:10026000696C653A20004E6F7720646F696E672075
:1002700066696C653A20002220706F73002220703E
:100280006172656E743A2200535542524F5554497B
:100290004E452043414C4C207461726765743A228C
:1002A00000747279696E6720746F2063616C6C20D2
:1002B0007375622D67636F64652066696C65732072
:1002C0007769746820746F6F206D616E79206C653A
:1002D00076656C732E204D4158206C6576656C20D8
:1002E00069733A0053442063617264206F6B006F3E
:1002F00070656E526F6F74206661696C656400761C
:100300006F6C756D652E696E6974206661696C65C8
:100310006400534420696E6974206661696C002032
:100320005A005A2D50726F6265204F66667365746D
:1003300020286D6D293A0046696C616D656E7420E8
:1003400073657474696E67733A2044697361626C93
:100350006564002020204D3230302054312044008C
:100360002020204D32303020440046696C616D659C
:100370006E742073657474696E67733A002044006C
:100380002049002020204D33303120500050494476
:100390002073657474696E67733A00205A0020599F
:1003A0000020204D323036205800486F6D65206F98
:1003B000666673657420286D6D293A00204500201B
:1003C0005A0020580020420020540020204D323096
:1003D00035205300416476616E63656420766172F6
:1003E0006961626C65733A20533D4D696E206665A4
:1003F00065647261746520286D6D2F73292C2054FB
:100400003D4D696E2074726176656C206665656429
:100410007261746520286D6D2F73292C20423D6D0B
:10042000696E696D756D207365676D656E74207496
:10043000696D6520286D73292C20583D6D617869A0
:100440006D756D205859206A65726B20286D6D2F6F
:1004500073292C20205A3D6D6178696D756D205A85
:10046000206A65726B20286D6D2F73292C20204522
:100470003D6D6178696D756D2045206A65726B20F0
:10048000286D6D2F73290020540020520020204D2C
:10049000323034205000416363656C657261746969
:1004A0006F6E733A20503D7072696E74696E672C7E
:1004B00020523D7265747261637420616E642054D1
:1004C0003D74726176656C00204500205A00205909
:1004D0000020204D3230312058004D6178696D7513
:1004E0006D20416363656C65726174696F6E20286D
:1004F0006D6D2F7332293A00204500205A00205993
:100500000020204D3230332058004D6178696D75E0
:100510006D2066656564726174657320286D6D2F4A
:1005200073293A00204500205A0020590020204D10
:1005300039322058005374657073207065722075CD
:100540006E69743A0048617264636F646564204444
:10055000656661756C742053657474696E67732089
:100560004C6F6164656400206279746573290020B2
:1005700073746F7265642073657474696E67732039
:1005800072657472696576656420280020627974EA
:100590006573290053657474696E67732053746FB3
:1005A0007265642028004572726F722077726974D8
:1005B000696E6720746F20454550524F4D210045AC
:1005C00072726F723A006563686F3A004152524529
:1005D000535441544F20005072696E7465722073F9
:1005E000746F707065642064756520746F20657227
:1005F000726F72732E204669782074686520657268
:10060000726F7220616E6420757365204D393939BF
:1006100020746F20726573746172742E2028546583
:100620006D7065726174757265206973207265738F
:1006300065742E2053657420697420616674657238
:100640002072657374617274696E67290055434343
:1006500049534F20005072696E7465722068616C56
:100660007465642E206B696C6C28292063616C6C46
:10067000656421006F6B00526573656E643A2000FB
:100680002200556E6B6E6F776E20636F6D6D616EBD
:10069000643A202200536F7370656E73696F6E65E4
:1006A0002E2E2E00FF01FF00007A43000048430079
:1006B0000048430000A0400000A0400000004000AF
:1006C000000000000048430000000000000000009F
:1006D0000000000000000000007A430000484300D2
:1006E00000484368656C6C6F424545707275736174
:1006F0002070726F6E746F0052697072656E6469FB
:10070000205374616D706100417474656E6469207A
:100710005574656E74652E2E2E004E657373756E5E
:10072000204D6F76696D656E746F00456E6420664E
:10073000696C65206C69737400426567696E206638
:10074000696C65206C697374002569206D696E2C75
:1007500020256920736563002042403A0020403A1A
:1007600000202F003A00205400202F0020423A00A1
:10077000202F006F6B20543A0048656174696E67E2
:1007800020646F6E652E0020573A0020453A0054D1
:100790003A0048656174696E672E2E2E00426564CA
:1007A00020646F6E652E0020423A0020453A0054C6
:1007B0003A004265642048656174696E672E00687E
:1007C000656C6C6F4245457072757361204F46468B
:1007D0002E004649524D574152455F4E414D453AD4
:1007E0004D61726C696E2056313B20537072696E98
:1007F0007465722F6772626C206D6173687570200A
:10080000666F722067656E36204649524D574152D9
:10081000455F55524C3A68747470733A2F2F67696C
:10082000746875622E636F6D2F4D61726C696E46D0
:1008300069726D776172652F4D61726C696E2050BF
:10084000524F544F434F4C5F56455253494F4E3AC7
:10085000312E30204D414348494E455F5459504553
:100860003A68656C6C6F42454570727573612045DE
:10087000585452554445525F434F554E543A3220D6
:10088000555549443A30303030303030302D3030EA
:1008900030302D303030302D303030302D30303061
:1008A0003030303030303030300A00205A3A0020BA
:1008B000593A0020436F756E7420583A2000204545
:1008C0003A00205A3A0020593A00583A007A5F6DAF
:1008D00061783A20007A5F6D696E3A2000795F6D29
:1008E00061783A2000795F6D696E3A2000785F6D1B
:1008F00061783A2000785F6D696E3A200053657424
:1009000074696E672054726176656C20416363651B
:100910006C65726174696F6E3A2000536574746916
:100920006E67205265747261637420416363656C05
:1009300065726174696F6E3A200053657474696EF4
:1009400067205072696E74696E6720416363656CDD
:1009500065726174696F6E3A2000486F74656E64E9
:10096000206F6666736574733A005A204F6666732B
:100970006574203A20007A5F6D61783A20007A5FD2
:100980006D696E3A20005A204F6666736574005A8E
:10099000204F6666736574206F6B0043616D6269FA
:1009A000612066696C616D656E746F0025692068F1
:1009B0006F757273202569206D696E75746573009B
:1009C000446F6E65207072696E74696E6720666927
:1009D0006C650041525245535441544F20005072AF
:1009E000696E7465722073746F70706564206475CD
:1009F0006520746F206572726F72732E204669785D
:100A000020746865206572726F7220616E64207553
:100A10007365204D39393920746F207265737461A4
:100A200072742E202854656D7065726174757265DC
:100A30002069732072657365742E20536574206974
:100A40007420616674657220726573746172746972
:100A50006E6729004E6F204C696E65204E756D6281
:100A60006572207769746820636865636B73756D60
:100A70002C204C617374204C696E653A20004E6FD7
:100A800020436865636B73756D2077697468206CAB
:100A9000696E65206E756D6265722C204C61737491
:100AA000204C696E653A2000636865636B73756DF1
:100AB000206D69736D617463682C204C61737420C0
:100AC0004C696E653A20004C696E65204E756D620A
:100AD0006572206973206E6F74204C617374204CB2
:100AE000696E65204E756D6265722B312C204C61EC
:100AF0007374204C696E653A20004D3131300044EA
:100B00006F6E6520736176696E672066696C652E0D
:100B1000006F6B004D3239002020506C616E6E65A5
:100B20007242756666657242797465733A20002078
:100B300046726565204D656D6F72793A20004F638E
:100B400074203133203230313500436F6D70696C61
:100B500065643A20004D6F64205468696E6B3344BD
:100B600020505400207C20417574686F723A200038
:100B70004F637420313320323031352032333A35EF
:100B8000383A313800204C617374205570646174B8
:100B900065643A2000312E302E31004D61726C694F
:100BA0006E0020536F6674776172652052657365BD
:100BB0007400205761746368646F672052657365C1
:100BC00074002042726F776E206F757420526573C7
:100BD0006574002045787465726E616C205265738F
:100BE000657400506F77657255700073746172742C
:100BF000002200656E717565696E672022002074A1
:100C00006F6F206C6F6E6720657874727573696F93
:100C10006E2070726576656E7465640020636F6C1B
:100C20006420657874727573696F6E207072657672
:100C3000656E746564007C3C3E5E2B3D3F2F5B5DC2
:100C40003B2C2A225C0045313A200045303A2000F6
:100C50005A3A2000593A2000583A20004D53312C7E
:100C60004D53322050696E730A0024F404D9201BBE
:100C7000C40C5C0E9804C4095F0265077101F40599
:100C8000F900FB04B30048048700C103690058035E
:100C9000550003034500BE023A00840231005302AE
:100CA0002A002902250004022000E4011C00C801DA
:100CB0001900AF011700980114008401130071019D
:100CC00010006101100051010E0043010D003601BA
:100CD0000B002B010B0020010B00150109000C017A
:100CE000090003010800FB000800F3000800EB0006
:100CF0000700E4000600DE000600D8000600D2006F
:100D00000600CC000500C7000500C2000500BD00BC
:100D10000400B9000400B5000400B1000400AD00F7
:100D20000400A9000400A5000300A20003009F0026
:100D300004009B000300980003009500020093004C
:100D40000300900003008D0002008B000300880068
:100D500002008600020084000300810002007F0080
:100D600002007D0002007B00020079000200770093
:100D700001007600020074000200720001007100A0
:100D800002006F0002006D0001006C0002006A00AA
:100D900001006900020067000100660001006500B3
:100DA00001006400020062000100610001006000B7
:100DB00001005F0002005D0001005C0001005B00BB
:100DC00001005A00010059000100580001005700BD
:100DD00001005600010055000100540001005300BD
:100DE00000005300010052000100510001005000BA
:100DF00001004F0001004E0000004E0001004D00B8
:100E000001004C0001004B0000004B0001004A00B3
:100E100001004900010048000000480001004700AF
:100E200001004600000046000100450000004500AA
:100E300001004400010043000000430001004200A3
:100E4000000042000100410000004100010040009C
:100E500001003F0000003F0001003E0000003E0096
:100E600001003D0000003D0001003C0000003C008E
:100E700000003C0001003B0000003B0001003A0084
:100E800000003A000100390000003900010038007C
:100E90000000380000003800010037000000370073
:100EA0000100360000003600000036000100350069
:100EB000000035000000350001003400000034005F
:100EC0000000340001003300000033000000330054
:100ED0000100320000003200000032000100310049
:100EE000000031000000310001003000000030003F
:100EF0000000300001002F0000002F0000002F0034
:100F000000002F0001002E0000002E0000002E0027
:100F100001002D0000002D0000002D0000002D001C
:100F200001002C0000002C0000002C0000002C0010
:100F300001002B0000002B0000002B0000002B0004
:100F400001002A0000002A0000002A0000002A00F8
:100F500001002900000029000000290000002900EC
:100F600000002900010028000000280000002800DF
:100F700000002800000028000100270000002700D2
:100F800000002700000027000000270001002600C5
:100F900000002600000026000000260000002600B9
:100FA00001002500000025000000250000002500AC
:100FB000000025000000250001002400000024009E
:100FC0000000240000002400000024000100230091
:100FD0000000230000002300000023000000230085
:100FE0000000230000002300010022000000220076
:100FF0000000220000002200000022000000220069
:10100000010021000000210000002100000021005B
:10101000000021000000210000002100010020004C
:101020000000200000002000000020000000200040
:1010300000002000000020000000200001001F0030
:1010400000001F0000001F0000001F0000001F0024
:1010500000001F0000001F0001001E0000001E0015
:1010600000001E0000001E00000024F4D43050C315
:101070008E20C2A24017828B7011127A910D816C62
:10108000D90AA861E108C7586607615143061E4B9B
:101090005D05C145A7041A411104093D9803713942
:1010A00031034036DB0265339102D4305402802E86
:1010B0001D02632CEE01752AC501B028A00110277E
:1010C00081018F2564012B244B01E0223401AC21E6
:1010D0001F018D200D01801FFC00841EED00971D57
:1010E000DF00B81CD200E61BC600201BBC00641A3F
:1010F000B200B219A8000A19A0006A189900D11705
:10110000910040178B00B516840031167E00B31590
:1011100079003A157300C7146F0058146A00EE1373
:1011200066008813630025135E00C7125B006C1213
:10113000570015125400C111510070114F002111B8
:101140004B00D61049008D10470046104400021095
:101150004200C00F4000800F3E00420F3C00060FCF
:101160003B00CB0E3800930E37005C0E3500270E87
:101170003400F30D3200C10D3100900D3000600DD0
:101180002E00320D2D00050D2C00D90C2B00AE0CBD
:101190002900850C29005C0C2700350C27000E0C5B
:1011A0002600E80B2400C40B2400A00B23007D0BB9
:1011B00023005A0B2100390B2100180B2000F80ADC
:1011C0001F00D90A1E00BB0A1E009D0A1D00800ACE
:1011D0001D00630A1C00470A1B002C0A1B00110A91
:1011E0001A00F7091A00DD091900C4091900AB0932
:1011F0001900920917007B091800630917004C09B0
:10120000160036091600200916000A091500F5080F
:101210001500E0081400CC081400B8081400A40855
:101220001400900813007D0812006B081300580882
:101230001200460812003408110023081100120899
:10124000110001081100F0071000E0071000D0079E
:101250001000C0071000B0070F00A1071000910791
:101260000E0083070F0074070F0065070E00570775
:101270000E0049070E003B070D002E070E00200749
:101280000D0013070D0006070D00F9060C00ED0612
:101290000D00E0060C00D4060C00C8060C00BC06CD
:1012A0000C00B0060C00A4060B0099060C008D067D
:1012B0000B0082060B0077060B006C060B00610624
:1012C0000A0057060B004C060A0042060A003806C0
:1012D0000A002E060A0024060A001A060A00100652
:1012E000090007060A00FD050900F4050900EB05E1
:1012F0000900E2050900D9050900D0050900C70564
:101300000900BE050900B5050800AD050800A505E2
:1013100009009C050800940508008C050800840558
:1013200008007C050800740508006C0507006505C9
:1013300008005D050700560508004E050700470533
:1013400007004005080038050700310507002A0599
:101350000700230507001C050600160507000F05FA
:1013600007000805060002050700FB040600F50457
:101370000700EE040600E8040600E2040700DB04B0
:101380000600D5040600CF040600C9040600C30405
:101390000600BD040600B7040600B1040500AC0455
:1013A0000600A6040600A00405009B0406009504A0
:1013B0000500900406008A040500850405008004E9
:1013C00006007A04050075040500700405006B042E
:1013D000050066040500610405005C04050057046F
:1013E0000500520405004D040500480405004304AF
:1013F00005003E0404003A040500350405003004ED
:1014000004002C04050027040400230405001E0426
:1014100004001A04040016040500110404000D045D
:101420000400090405000404040000040400FC0393
:101430000400F8030400F4030400F0030400EC03C8
:101440000400E8030400E4030400E0030400DC03F8
:101450000400D8030400D4030400D0030400CC0328
:101460000400C8030300C5030300656E6473746F52
:101470007073206869743A205A00205A3A00656EE9
:101480006473746F7073206869743A20590020592E
:101490003A00656E6473746F7073206869743A20E3
:1014A000580020583A00656E6473746F707320683A
:1014B00069743A2000202D20496E76616C696420A1
:1014C0006578747275646572206E756D62657220E0
:1014D000210070012C0190012701B0012201C001FF
:1014E0001D01F00118011002130130020E0160020B
:1014F000090190020401C002FF000003FA0040034A
:10150000F5008003F000D003EB002004E600700437
:10151000E100E004DC004005D700C005D200400631
:10152000CD00D006C8008007C3003008BE00F00818
:10153000B900C009B400B00AAF00B00BAA00D00CCB
:10154000A500000EA000500F9B00C0109600501286
:10155000910000148C00C0158700B0178200B019EC
:101560007D00D01B7800001E730040206E0090228A
:101570006900F024640040275F0090295A00E02BA6
:101580005500102E500020304B0010324600E03342
:10159000410090353C001037370070383200A039D8
:1015A0002D00B03A2800A03B2300603C1E00103DF7
:1015B0001900903D1400103E0F00703E0A00C03E1E
:1015C0000500003F0000504944204175746F747558
:1015D0006E652066696E6973686564212050757454
:1015E00020746865206C617374204B702C204B69EB
:1015F00020616E64204B6420636F6E7374616E743F
:10160000732066726F6D2061626F766520696E74FB
:101610006F20436F6E66696775726174696F6E2EB5
:101620006800504944204175746F74756E6520667A
:1016300061696C6564212074696D656F7574002043
:10164000403A006F6B20543A006F6B20423A0050D2
:101650004944204175746F74756E65206661696CCC
:101660006564212054656D706572617475726520C2
:10167000746F6F206869676800204B643A2000200F
:101680004B693A2000204B703A200020436C617374
:101690007369632050494420002054753A2000208B
:1016A0004B753A2000206D61783A2000206D696EFC
:1016B0003A200020643A200020626961733A2000D9
:1016C0002D2D3A2D2D002D2D2D00534400012000ED
:1016D0000120000120004E6F2053442043617264BA
:1016E0000053442043617264204D656E7500417261
:1016F0007265737461207374616D706100526970FA
:1017000072656E6469207374616D706100506175FB
:10171000736100436F6E74726F6C6C6F0050726512
:101720007061726100416461747461004775617237
:10173000646100052E2E004D656E75207072696E15
:10174000636970616C65004D3234004D3233202581
:1017500073004D383420582059205A204500496DD7
:10176000706F7374617A2E2064656661756C7400A5
:1017700043617269636120646120454550524F4D59
:101780000053616C766120696E20454550524F4D83
:101790000046696C616D656E74004D6F76696D65AC
:1017A0006E746F0054656D7065726174757261005E
:1017B0004D656E75207072696E636970616C65004D
:1017C0004469616D2E2066696C6F20320044696146
:1017D0006D2E2066696C6F2032004469616D2E2089
:1017E00066696C6F2031004469616D2E2066696CFA
:1017F0006F2031004F4646004F4E20004F464600B6
:101800004F4E20004520696E206D6DC2B300436FBE
:101810006E74726F6C6C6F004570617373692F6DBD
:101820006D004570617373692F6D6D005A7061733F
:1018300073692F6D6D005A70617373692F6D6D0040
:101840005970617373692F6D6D005970617373699D
:101850002F6D6D005870617373692F6D6D00587036
:10186000617373692F6D6D00412D74726176656CC3
:1018700000412D74726176656C00412D7265747241
:1018800061637400412D7265747261637400416D0F
:1018900061786500416D61786500416D61787A001D
:1018A000416D61787A00416D61787900416D6178B0
:1018B0007900416D61787800416D61787800565407
:1018C000726176206D696E005654726176206D6982
:1018D0006E00566D696E00566D696E00566D6178CA
:1018E0006500566D61786500566D61787A00566DB9
:1018F00061787A00566D61787900566D617879006B
:10190000566D61787800566D6178780056652D6A5D
:1019100065726B0056652D6A65726B00567A2D6A8A
:1019200065726B00567A2D6A65726B005678792D58
:101930006A65726B005678792D6A65726B00416337
:1019400063656C2E00416363656C2E00436F6E749B
:10195000726F6C6C6F00436F6E6669672E207072D9
:1019600065722E2041425300436F6E6669672E20D8
:10197000707265722E20504C41005049442D430036
:101980005049442D43005049442D44005049442DB2
:1019900044005049442D49005049442D49005049C4
:1019A000442D50005049442D5000200220466163D0
:1019B000740020022046616374002002204D61788B
:1019C000002002204D6178002002204D696E002029
:1019D00002204D696E004F4646004F4E20004F4694
:1019E00046004F4E20004175746F74656D7000564F
:1019F000656E746F6C610056656E746F6C6100503B
:101A0000696174746F0050696174746F0055676523
:101A10006C6C6F2032005567656C6C6F203200551E
:101A200067656C6C6F005567656C6C6F00436F6E1B
:101A300074726F6C6C6F0053616C766120696E20FC
:101A4000454550524F4D0050696174746F005069A4
:101A50006174746F005567656C6C6F005567656CD9
:101A60006C6F0056656E746F6C610056656E746FB6
:101A70006C610054656D70657261747572610053BC
:101A8000616C766120696E20454550524F4D005083
:101A9000696174746F0050696174746F0055676593
:101AA0006C6C6F005567656C6C6F0056656E746F7B
:101AB0006C610056656E746F6C610054656D706585
:101AC000726174757261004D756F76692041737330
:101AD0006500526166667265646461005072657289
:101AE000697363616C646120414253005072657296
:101AF000697363616C646120504C41005365747478
:101B000061206F666673657420686F6D650047328B
:101B100038004175746F20486F6D65004D38340092
:101B20004469736162696C697461204D6F746F728E
:101B300069004D656E75207072696E636970616CC5
:101B400065004D756F766920646920302E316D6DAA
:101B5000004D756F7669206469202020316D6D001D
:101B60004D756F7669206469202031306D6D0050AD
:101B7000726570617261004573747275736F72651E
:101B8000004D756F7669205A004D756F7669205942
:101B9000004D756F76692058004D756F766920414C
:101BA000737365004578747275646572005A0059E4
:101BB000005800507265722E2041425320506961D6
:101BC00074746F00507265722E2041425320547518
:101BD00074746F0050726572697363616C64612024
:101BE00041425320320050726572697363616C64C4
:101BF0006120414253203100507265706172610072
:101C0000507265722E20504C412050696174746F7F
:101C100000507265722E20504C4120547574746FC0
:101C20000050726572697363616C646120504C414D
:101C300020320050726572697363616C6461205078
:101C40004C4120310050726570617261004D363038
:101C5000300043616D6269612066696C616D656E1B
:101C6000746F00466C7573736F203100466C75732A
:101C7000736F203100466C7573736F203000466CB3
:101C80007573736F203000466C7573736F00466C0C
:101C90007573736F0056656E746F6C610056656E78
:101CA000746F6C610050696174746F005069617485
:101CB000746F005567656C6C6F2032005567656CFA
:101CC0006C6F2032005567656C6C6F005567656CF2
:101CD0006C6F0056656C636974C3A00056656C63D5
:101CE0006974C3A0004D656E75207072696E63697A
:101CF00070616C6500534420436172642072696DA9
:101D00006F737361005344204361726420696E7382
:101D10006572697461004D33303020533635392097
:101D2000503230300A4D333030205336393820505D
:101D30003230300000002100240027002A002D004E
:101D40003000330001010000040107010A01000016
:101D50002200250028002B002E0031003400020153
:101D60000000050108010B010000200023002600EF
:101D700029002C002F0032000001000003010601A1
:101D80000901050505050705080808080202020201
:101D90000A0A080804040404010101010101010107
:101DA0000303030303030303040707070C0C0C0CD2
:101DB0000C0C0C0C020202020606060606060606BB
:101DC0000B0B0B0B0B0B0B0B010210202008081048
:101DD000204010204080020102010804020101029B
:101DE0000408102040808040201008040201800474
:101DF00002018040201008040201080402010102CF
:101E000004081020408001020408102040800000D7
:101E1000090A02080B0C0D0706030401000000006C
:101E200000000000000000000000000000000000B2
:101E30000000000000000000000011100F00000072
:101E40000000000000000000000000000000000092
:101E50000000000002494E46494E4954594E414E39
:101E6000CDCCCC3D0AD7233C17B7D13877CC2B3219
:101E70009595E6241FB14F0A000020410000C8429A
:101E800000401C4620BCBE4CCA1B0E5AAEC59D74F9
:101E9000D32DF03110D27ADFEB3111241FBECFEFFA
:101EA000D1E2DEBFCDBF00E00CBF16E0A0E0B2E0A3
:101EB000EEEDFFED01E00BBF02C007900D92A630E2
:101EC000B107D9F71BBE14E1A6E0B6E001C01D9230
:101ED000A83CB107E1F71EE1C8E9DEE104C02297A2
:101EE000FE010E9495EFC039D107C9F70E9491E623
:101EF0000C94E3EF0C940000A0E0B0E0E2E8FFE017
:101F00000C94B2EFEC015B016115710519F0FB0156
:101F100091838083F9908F2D90E00E9499EF892B17
:101F2000C9F7FDE2FF1621F4F990EE24E39405C011
:101F30002BE2F21609F4F990EE248E0101501040C4
:101F4000C80165E57EE143E050E062D2892BF9F4F7
:101F50008E010E5F1F4FC80168E57EE145E050E04D
:101F600057D2892B19F48E01095F1F4FA114B104B8
:101F700019F0F50111830083E0FC04C070E090E0EB
:101F800080E813C070E090E080E86FEF07C1C801FF
:101F90006DE57EE143E050E03BD2892B69F4A1146A
:101FA000B10429F470E090E080EC6FE7F7C022966E
:101FB000F501D183C083F6CF8824992440E050E016
:101FC00060E070E0EF2DE053EA30A0F5F2E0EF2A98
:101FD0008E2D90E09C0128703070E2FE06C0232B0D
:101FE00079F50894811C911C2BC0232B19F00894BF
:101FF00081089108DB01CA0112E0880F991FAA1F0E
:10200000BB1F1A95D1F7480F591F6A1F7B1F440F3A
:10201000551F661F771F4E0F511D611D711D4839D9
:1020200029E9520729E9620729E1720748F084E0AB
:10203000E82A06C0EE3F31F4E3FC39C098E0E92A13
:10204000F990C0CFE53311F0E53189F529912D32B2
:1020500019F4E0E1EE2A05C02B3219F081E090E09E
:1020600003C0299182E090E0E22FE053EA3018F0BB
:10207000C81BD90B1CC020E030E0FCE020383F0733
:102080005CF4C901880F991F880F991F280F391F09
:10209000220F331F2E0F311DE991E053EA3068F310
:1020A000E4FE03C0309521953F4F820E931ECE2C47
:1020B000DD24E1FE07C0A114B10421F02197F50150
:1020C000D183C083CB01BA010E94FEEB7B018C015E
:1020D000F3E0CF22DD2423E0C216D10421F417FB64
:1020E000109517F9109557016801C801B70120E054
:1020F00030E040E050E00E945EEB882309F44AC0E3
:1021000097FE0DC024E7E22E2EE1F22E90948194EA
:1021100091089394C0E2D0E000E010E012C09CE887
:10212000E92E9EE1F92EF6CFF701259135914591E3
:102130005491C601B5010E943EEE5B016C018C1A00
:102140009D0A8C169D0684F7D595C7950F5F1F4F86
:102150000630110529F08CEF9FEFE80EF91EF1CF44
:10216000C501D6017C018D018C2D880F8D2D881F16
:102170008F3F51F0C601B50120E030E040E050E073
:102180000E945EEB882331F482E290E09093C714C2
:102190008093C6147E2D9F2D802F612F272F392FDE
:1021A000482F562FB901CA01CDB7DEB7ECE00C9429
:1021B000CEEF2F923F925F926F927F928F929F927B
:1021C000AF92BF92CF92DF92EF92FF920F931F9345
:1021D000CF93DF938C011B01EA016115710519F0A2
:1021E000FB0191838083209749F0CE01029783976A
:1021F00028F020E030E040E050E0F6C0F801A19087
:102200008F018A2D90E00E9499EF892BB9F7FDE2AA
:10221000AF1631F4F801A1908F015524539407C0F3
:10222000FBE2AF1619F4F801A1908F015524209715
:1022300019F0C031D105C1F4F0E3AF1679F4F8011B
:102240008081883711F0883549F4F801A1800E5F4C
:102250001F4FF2E05F2AC0E1D0E006C0209721F4D2
:1022600080E3A816E9F427C0C830D10531F1C930A0
:10227000D10524F4C230D10531F50CC0CA30D105E6
:1022800089F0C031D105F9F4C12CD12CE12CB8E092
:10229000FB2E28C0C12CD12CE12CA0E4FA2E22C0A8
:1022A000CAE0D0E0FCECCF2EFCECDF2EFCECEF2EF5
:1022B000FCE0FF2E17C0C8E0D0E0C12CD12CE12CEF
:1022C000E0E1FE2E0FC09E01442737FD4095542FBC
:1022D00060E070E080E090E80E9456EFC901DA010A
:1022E0006C017D0120E030E040E050E060E03E0124
:1022F000882477FC8094982C70EDB72EBA0CE9E016
:10230000EB1570F48A2D81548A3118F499ECB92EAA
:1023100006C08A2D81568A3150F589EAB82EBA0C4A
:102320008B2D90E08C179D0714F56F3FE1F0C216DE
:10233000D306E406F506B0F0CA01B901A401930181
:102340000E9410EF9B01AC012B0D311D411D511D51
:102350002130F0E03F07F0E04F07F0E85F0710F4AE
:1023600061E001C06FEFF801A1908F01C5CF21148A
:10237000310481F0662331F001501040F1011183E6
:10238000008308C051FE1AC002501040F1011183B1
:10239000008314C067FF12C050FC05C02FEF3FEF51
:1023A0004FEF5FE704C020E030E040E050E882E219
:1023B00090E09093C7148093C61416C050FE08C0D6
:1023C00050954095309521953F4F4F4F5F4F0CC032
:1023D00057FF0AC082E290E09093C7148093C6141E
:1023E0002FEF3FEF4FEF5FE7B901CA01DF91CF91C8
:1023F0001F910F91FF90EF90DF90CF90BF90AF9023
:102400009F908F907F906F905F903F902F90089556
:10241000FB01DC014150504088F08D9181341CF06B
:102420008B350CF4805E659161341CF06B350CF4D7
:10243000605E861B611171F3990B0895881BFCCFB8
:10244000FB01DC014150504048F005900D92002006
:10245000C9F701C01D9241505040E0F70895FB01BB
:1024600055915523A9F0BF01DC014D91451741114C
:10247000E1F759F4CD010590002049F04D91401548
:102480004111C9F3FB014111EFCF81E090E00197C9
:102490000895FB01DC0104C08D910190801921F4A5
:1024A00041505040C8F7881B990B0895FB01DC018F
:1024B00002C001900D9241505040D8F70895FB01A1
:1024C000DC018D9181341CF08B350CF4805E6191C0
:1024D00061341CF06B350CF4605E861B611189F36E
:1024E000990B0895FB01DC010D900020E9F711978D
:1024F00001900D920020E1F70895FC01819186176B
:1025000021F08823D9F7992708953197CF010895AD
:10251000FB01DC018D91019080190110D9F3990B19
:102520000895FB01DC0101900D920020E1F7089570
:10253000FB01DC014150504030F08D910190801939
:1025400019F40020B9F7881B990B0895FB01DC01F1
:102550004150504048F001900D920020C9F701C051
:102560001D9241505040E0F70895AEE0B0E0EBEB33
:10257000F2E10C94BAEF0E891F898EE08C831A83E6
:1025800009838FEF9FE79E838D839E01265E3F4FD9
:10259000CE010196688D798DA9010AD02F813885E9
:1025A000020F131FF80110822E96E4E00C94D6EF70
:1025B000ABE0B0E0EEEDF2E10C94ACEF3C012B01AE
:1025C0005A01FC0117821682838181FD03C06FEFDF
:1025D0007FEFB9C19AE0892E1E010894211C311C9D
:1025E000F3012381F20123FD859123FF81912F01C6
:1025F000882309F4A5C1853239F423FD859123FF91
:1026000081912F01853221F490E0B301B7D1E8CF59
:10261000982FFF24EE249924FFE1FF15D0F09B3280
:1026200069F09C3228F4903259F0933291F40EC044
:102630009D3249F0903369F441E024C052E0F52A1C
:1026400084E0F82A28C098E0F92A25C0E0E1FE2AB3
:1026500022C0F7FC29C0892F80538A3070F4F6FE1F
:1026600005C0989C902C1124980E15C0E89CE02C75
:102670001124E80EF0E2FF2A0EC09E3229F4F6FC87
:102680005FC140E4F42A07C09C3619F450E8F52AEB
:1026900002C0983649F4F20123FD959123FF9191F0
:1026A0002F01992309F0B8CF892F8554833018F072
:1026B0008052833038F444E050E0A40EB51E5FE34E
:1026C00059830FC0933631F0933779F0933509F081
:1026D00052C01FC0F5018081898342E050E0A40E02
:1026E000B51E610101E010E011C0F501C080D1808C
:1026F000F6FC03C06FEF7FEF02C0692D70E042E08F
:1027000050E0A40EB51EC6012ED18C015FE7F52264
:1027100013C0F501C080D180F6FC03C06FEF7FEFDE
:1027200002C0692D70E042E050E0A40EB51EC60163
:102730000FD18C0150E8F52AF3FE06C018C080E2E4
:1027400090E0B3011BD1EA948E2D90E00817190791
:10275000B0F30DC0F601F7FC8591F7FE81916F0192
:1027600090E0B3010BD1E110EA9401501040011543
:10277000110581F7E2C0943611F0993661F5F7FE44
:1027800008C0F501208131814281538184E090E0CD
:102790000AC0F501808191819C01442737FD409555
:1027A000542F82E090E0A80EB91E9FE6F92257FF51
:1027B00009C050954095309521953F4F4F4F5F4F41
:1027C000E0E8FE2ACA01B901A1012AE030E002D105
:1027D000D82ED2183FC0953729F41F2D1F7E2AE02E
:1027E00030E01DC01F2D197F9F3661F0903720F417
:1027F000983509F0A5C00FC0903739F0983709F027
:102800009FC004C028E030E00AC0106114FD1460CD
:1028100020E130E004C014FD166020E132E017FF33
:1028200008C0F501608171818281938144E050E0AC
:1028300008C0F50180819181BC0180E090E042E018
:1028400050E0A40EB51EA101C5D0D82ED2188FE736
:10285000F82EF122F6FE0BC05EEFF522D91438F403
:10286000F4FE07C0F2FC05C08FEEF82202C01D2D59
:1028700001C0192DF4FE0DC0FE01ED0DF11D80818A
:10288000803319F499EEF92208C01F5FF2FE05C0EB
:1028900003C08F2D867809F01F5F0F2DF3FC13C046
:1028A000F0FE0EC01E1510F09D2C0AC09D2C9E0C33
:1028B000911A1E2D05C080E290E0B3015FD01F5F2A
:1028C0001E15C8F304C01E1510F4E11A01C0EE2451
:1028D00004FF0EC080E390E0B30150D002FF1BC0A4
:1028E00001FD03C088E790E00EC088E590E00BC0D2
:1028F000802F867881F001FF02C08BE201C080E268
:10290000F7FC8DE290E0B30139D005C080E390E0A0
:10291000B30134D09A94D914C8F3DA94F101ED0DCF
:10292000F11D808190E0B30129D0DD20B1F705C011
:1029300080E290E0B30122D0EA94EE20C9F750CEB5
:10294000F30166817781CB012B96E2E10C94C8EF0D
:10295000FC010590615070400110D8F7809590956A
:102960008E0F9F1F0895FC0161507040019001106F
:10297000D8F7809590958E0F9F1F08950F931F9302
:10298000CF93DF938C01EB018B8181FF1BC082FF12
:102990000DC02E813F818C819D812817390764F4F9
:1029A000E881F9810193F983E88306C0E885F98518
:1029B000802F1995892B31F48E819F8101969F83F9
:1029C0008E8302C00FEF1FEFC801DF91CF911F91DF
:1029D0000F910895FA01AA27283051F1203181F191
:1029E000E8946F936E7F6E5F7F4F8F4F9F4FAF4F17
:1029F000B1E03ED0B4E03CD0670F781F891F9A1F2A
:102A0000A11D680F791F8A1F911DA11D6A0F711DDD
:102A1000811D911DA11D20D009F468943F912AE0E9
:102A2000269F11243019305D3193DEF6CF010895D1
:102A3000462F4770405D4193B3E00FD0C9F7F6CF02
:102A4000462F4F70405D4A3318F0495D31FD4052CA
:102A5000419302D0A9F7EACFB4E0A6959795879560
:102A600077956795BA95C9F700976105710508953F
:102A70009B01AC010A2E06945795479537952795EB
:102A8000BA95C9F7620F731F841F951FA01D089583
:102A9000FC01128213820895FC018381882311F0C6
:102AA00081E082830895FC01828181111282089560
:102AB000CF93DF93DC01FC01EB55FE4F80819181C8
:102AC0000097C9F1019791838083ED01CC5ADF4FC4
:102AD000FD01ED58FF4F8BE1019009928150E1F724
:102AE000FD01EE5AFF4FAF58BF4F8D919C9111974A
:102AF000A157B04091838083FD01ED58FF4F20E046
:102B000030E0AD014B555E4F10C02F5F3F4FEF01DE
:102B1000DF015F968BE10D9009928150E1F7858D81
:102B2000968D329791838083B196DA018D919C9135
:102B30002817390750F3DF91CF910895FC0187E8FA
:102B400095E0918380838781882321F0CF010496CB
:102B50000C94D1720895CF92DF92EF92FF920F936F
:102B60001F93DF93CF93CDB7DEB76F970FB6F8946F
:102B7000DEBF0FBECDBF8C016B01095A1F4FD801BC
:102B80008C9107551040882321F42FE2E22EF12C7E
:102B900003C090E5E92EF12CE00EF11E87E895E0E8
:102BA0009A8389831C821B8218861D82B7016C5F01
:102BB0007F4FCE010596A60121E00E94BD798823B2
:102BC00091F5E6ECF5E0949108C08091C00085FF96
:102BD000FCCF9093C600319694919923B1F7EBE323
:102BE000F1E0949108C08091C00085FFFCCF9093E4
:102BF000C600319694919923B1F709C08091C00025
:102C000085FFFCCF0894C11CD11C9093C600F6012F
:102C10009081992399F78091C00085FFFCCF8AE0CD
:102C20008093C6005AC0F801EB55FE4F20813181D8
:102C30002A30310508F040C02F5F3F4F3183208399
:102C400021503040F90185E0EE0FFF1F8A95E1F732
:102C5000E21BF30BED58FF4FE00FF11F13C0AF0164
:102C6000415E5F4FBF018BE1DB010D90BD01DA01D9
:102C70000D92AD018150C1F7929182913296968F5B
:102C8000858F7F9721503040BFEF2E3F3B0739F7AC
:102C9000D801AD58BF4FF70134968BE101900D92EA
:102CA0008150E1F70F581F4FF70182819381D801BE
:102CB0008D939C9301571040D801AC5ABF4FFE0131
:102CC00035968BE101900D928150E1F70E5A1F4F1E
:102CD0008B819C81F80191838083CE0101962EDF48
:102CE0006F960FB6F894DEBF0FBECDBFCF91DF91C8
:102CF0001F910F91FF90EF90DF90CF900895EF928A
:102D0000FF920F931F938C013EECE32E31E0F32EE4
:102D1000E80EF91EC7010E948272C7010E94D1729B
:102D2000F801118210821F910F91FF90EF9008958A
:102D3000CF92DF92EF92FF920F931F93CF93DF9387
:102D40007C016B01DB010D900020E9F78D01015042
:102D50001040061B170BEEECF1E0EE0EFF1ED70144
:102D60001C92E2E3FEEFEE0EFF1ECB016EE470E07C
:102D7000C4DBEC01009731F4F8013197EC0DFD1D37
:102D800086010CC060E270E0B8DB8C010F5F1F4F62
:102D9000CE016AE270E0B1DBFC0131978DE0818306
:102DA0008AE082831382C70186539E4FB8010E9436
:102DB000CE7A8EEC91E0E80EF91ED7018C91882333
:102DC00019F1EFEBF5E0949108C08091C00085FF08
:102DD000FCCF9093C600319694919923B1F7E5E624
:102DE000F1E0949108C08091C00085FFFCCF9093E2
:102DF000C600319694919923B1F78091C00085FF68
:102E0000FCCF8AE08093C600DF91CF911F910F9194
:102E1000FF90EF90DF90CF900895CF93DF93EC0178
:102E20008B81882309F43BC0EDE8F1E0949108C060
:102E30008091C00085FFFCCF9093C600319694919D
:102E40009923B1F7CD57DD4F488159816A817B8144
:102E5000C358D2408AE896E02AE030E00E946C2E07
:102E6000EBE8F1E0949108C08091C00085FFFCCFB1
:102E70009093C600319694919923B1F7C558DD4FD0
:102E8000488159816A817B818AE896E02AE030E0B6
:102E90000E946C2E8091C00085FFFCCF12C0EBE732
:102EA000F1E0949108C08091C00085FFFCCF909321
:102EB000C600319694919923B1F78091C00085FFA7
:102EC000FCCF8AE08093C600DF91CF9108952F92C6
:102ED0003F924F925F926F927F928F929F92AF92AA
:102EE000BF92CF92DF92EF92FF920F931F93DF93E7
:102EF000CF93CDB7DEB7AC970FB6F894DEBF0FBE59
:102F0000CDBF5C014B01FC018381882309F43BC1E7
:102F1000C50182539E4F0E94D172F50112821A8A16
:102F20001D8A198A188A87E895E09F878E875EE454
:102F3000C52ED12CCA0CDB1C2FE230E0A20EB31E32
:102F4000F601B182A08221ED3FEFA20EB31EF40183
:102F500080818F3209F08DC0C4016FE270E0CDDA5C
:102F60007C010894E11CF11C3E010894611C711C59
:102F7000260142E1242E312C2C0E3D1E75C0C701C6
:102F80006FE270E0BADA6C01009709F480C0E816CD
:102F9000F90608F07CC08C010E191F09C301B701A6
:102FA000A801D4DA060D171DF8011082F30107C03D
:102FB0008091C00085FFFCCF31969093C600908130
:102FC0009923B1F78091C00085FFFCCFFAE0F09320
:102FD000C600F201608171816115710519F460E02C
:102FE00070E002C06C5F7F4FC101A30121E00E942D
:102FF000BD79882371F5E9ECF1E0949108C08091E6
:10300000C00085FFFCCF9093C60031969491992320
:10301000B1F7FE01319607C08091C00085FFFCCF5B
:1030200031969093C60090819923B1F7E7ECF1E0D7
:10303000949108C08091C00085FFFCCF9093C6009A
:10304000319694919923B1F78091C00085FFFCCF10
:1030500094C02EE030E02C0F3D1FF201318320831D
:1030600076010894E11CF11CE114F10409F087CF0A
:103070000BC080E590E0A80EB91EF601B182A082D7
:1030800020EB3FEFA20EB31ED82C092D02C0DE2C80
:103090000F2D8EE490E0A80EB91EF501808191817C
:1030A00022EB3FEFA20EB31E009719F480E090E0F0
:1030B00001C004966D2D702F0E94897A882371F1CA
:1030C000E9EBF1E0949108C08091C00085FFFCCF4E
:1030D0009093C600319694919923B1F78D2D902F3E
:1030E0009C01F90107C08091C00085FFFCCF31969B
:1030F0009093C60090819923B1F78091C00085FF1D
:10310000FCCF8AE08093C60083E892E0A80EB91E47
:10311000F501108211821282138232C0E1EAF1E0DD
:10312000949108C08091C00085FFFCCF9093C600A9
:10313000319694919923B1F78D2D902F9C01F9012F
:1031400007C08091C00085FFFCCF31969093C600E8
:1031500090819923B1F7EFE9F1E0949108C0809153
:10316000C00085FFFCCF9093C600319694919923BF
:10317000B1F78091C00085FFFCCF8AE08093C60044
:10318000CE010E96DBDCAC960FB6F894DEBF0FBE18
:10319000CDBFCF91DF911F910F91FF90EF90DF9006
:1031A000CF90BF90AF909F908F907F906F905F90E7
:1031B0004F903F902F900895BF92CF92DF92EF9261
:1031C000FF920F931F93CF93DF938C01EB018FE25C
:1031D0008993EE24E394FF2475EAC72E71E0D72E7D
:1031E000C00ED11E6FE1B62E14C0FB9CC00111248D
:1031F0008D589F4F800F911FBE010E94E17202C047
:103200002196E3948881882319F08CE88E15C0F705
:10321000F3942F2D30E0F601808191812817390732
:1032200020F3E7FC07C0C80182539E4FBE010E94F5
:10323000E17201C01882DF91CF911F910F91FF9031
:10324000EF90DF90CF90BF900895EF92FF920F9391
:103250001F93CF93DF938C01FC01138286A98823EF
:1032600021F0C801C3960E94D172E7EAEE2EE1E098
:10327000FE2EE00EF11EC70160E045E30E947E7065
:10328000882309F5E6ECF5E0949108C08091C00030
:1032900085FFFCCF9093C600319694919923B1F7A6
:1032A000E2E1F3E0949108C08091C00085FFFCCF7B
:1032B0009093C600319694919923B1F78091C00004
:1032C00085FFFCCF7DC0E801C455DE4FCE01B701BC
:1032D00041E00E945F7B882341F5CE01B70140E0C9
:1032E0000E945F7B882309F5EFEBF5E0949108C01D
:1032F0008091C00085FFFCCF9093C60031969491D9
:103300009923B1F7EFEFF2E0949108C08091C000EB
:1033100085FFFCCF9093C600319694919923B1F725
:103320008091C00085FFFCCF4BC0C801C396BE0191
:103330000E94C375882309F5EFEBF5E0949108C06E
:103340008091C00085FFFCCF9093C6003196949188
:103350009923B1F7EFEEF2E0949108C08091C0009C
:1033600085FFFCCF9093C600319694919923B1F7D5
:103370008091C00085FFFCCF23C081E0F8018383EA
:10338000E6ECF5E0949108C08091C00085FFFCCF89
:103390009093C600319694919923B1F7E4EEF2E050
:1033A000949108C08091C00085FFFCCF9093C60027
:1033B000319694919923B1F78091C00085FFFCCF9D
:1033C0008AE08093C600D801AC5ABF4FF801F3964B
:1033D0008BE101900D928150E1F7F80181A992A94A
:1033E0000E5A1F4FF8019183808302551040C80187
:1033F0008F96025B1F4FF80191838083DF91CF91FD
:103400001F910F91FF90EF9008952F923F924F924E
:103410005F926F927F929F92AF92BF92CF92DF9214
:10342000EF92FF920F931F93DF93CF93CDB7DEB749
:10343000CC55D0400FB6F894DEBF0FBECDBF6C01A7
:10344000662309F0E3C027E832E0C20ED31ED6019E
:103450008C91E9E7FDEFCE0EDF1E882309F4E7C06B
:103460002FE732E0C20ED31ED601ED90FD900D91F4
:103470001C91E1E8FDEFCE0EDF1E0E94CCE3E616C4
:10348000F7060807190708F4D2C0C0C0C601DDDE80
:10349000D60113968C91882309F4C9C000D000D0BE
:1034A000EDB7FEB731967E010894E11CF11CADB773
:1034B000BEB71296FC92EE9211978CE591E0938341
:1034C0008283D6019D968D919C919E97958384834E
:1034D0004CD88701EDB7FEB736960FB6F894FEBF0D
:1034E0000FBEEDBF57010AC0D8018C91992787FD07
:1034F00090950E94A1EFF80181938F01F501019051
:103500000020E9F73197EA19FB09802F8E198E17F1
:103510005CF313E3A12EB12CAC0CBD1CC50140E043
:1035200050E060E070E00E94B8719924BDE3EB2E9A
:10353000F12CEC0EFD1E2E010894411C511CAFE134
:103540006A2E712C6C0E7D1EF5E52F2EF1E03F2EBC
:1035500042C0D8018C9190E00E94A1EFF8018193C4
:103560008F01D7010D900020E9F71197AE19BF091F
:10357000802F8E198A176CF327968FAD27978E3779
:1035800051F1C701B20145E050E00E949812009746
:1035900011F500D000D0EDB7FEB73196ADB7BEB78C
:1035A00012967C926E9211973382228255824482C7
:1035B0000E94B512EDB7FEB736960FB6F894FEBF6F
:1035C0000FBEEDBFC3010E94224181E591E00E9440
:1035D0006F5699249394C501B70140E050E00E94D2
:1035E000E274181614F48701BCCF992041F48FEFD0
:1035F0009FEFD6019E969C938E939D9718C0F601DF
:1036000085A596A5019696A785A711C027E832E063
:10361000C20ED31ED6011C92E9E7FDEFCE0EDF1ECF
:10362000D60113968C91882309F430CF37CFC45A32
:10363000DF4F0FB6F894DEBF0FBECDBFCF91DF9145
:103640001F910F91FF90EF90DF90CF90BF90AF90C0
:103650009F907F906F905F904F903F902F90089534
:103660002F923F924F925F926F927F928F929F9292
:10367000AF92BF92CF92DF92EF92FF920F931F9380
:10368000DF93CF93CDB7DEB7CF58D0400FB6F894C5
:10369000DEBF0FBECDBF8C012B016A01C757DF4FC4
:1036A00039832883C958D04084E090E0C80ED91EE1
:1036B000F8017296C957DF4FF983E883C758D040A5
:1036C00045E0642E712C600E711ECA57DF4F1882C0
:1036D000C658D04036E6E32EF12CEC0EFD1EC70195
:1036E0000B96C557DF4F99838883CB58D04028E885
:1036F000822E22E0922E800E911E9AE8A92E92E050
:10370000B92EA00EB11E87E4282E312C2C0E3D1EA2
:10371000F1013496C357DF4FF983E883CD58D04089
:10372000E6ECF5E08491C157DF4F8883CF58D04055
:103730004CC1F7018385282F30E0A90148715070F2
:103740004031510509F04FC1F401808191818130F0
:10375000910509F448C1029709F445C1F701DE015A
:1037600011969081903239F08E2F8E19883011F495
:103770008EE28D939D933196C557DF4F8881998155
:10378000CB58D040E817F90761F71C921E86F2016A
:103790008081882331F4CE010E9660E072E00E94B1
:1037A0007212CE010E96B2010E947212CE010E96D6
:1037B000BE016F5F7F4F0E947212CE010E9660E0D5
:1037C00072E00E9472121CA61FA61BA61AA687E80A
:1037D00095E099A788A7CE018C96B601AE014F5F00
:1037E0005F4F21E00E94BD79882309F03FC0F401BA
:1037F00080819181892BD1F5C157DF4F9881CF58B6
:10380000D040E6ECF5E008C08091C00085FFFCCF19
:103810009093C600319694919923B1F7E2E0F2E0DB
:1038200007C08091C00085FFFCCF31969093C60001
:1038300090819923B1F78091C00085FFFCCFFAE019
:10384000F093C600FE01319607C08091C00085FF4D
:10385000FCCF31969093C60090819923B1F7809167
:10386000C00085FFFCCF8AE08093C600C357DF4FBE
:10387000A881B981CD58D040FE01BC968BE1019062
:103880000D928150E1F78AA59BA5F1019383828374
:1038900087E895E091838083C801BE01625F7F4F16
:1038A000A10120E030E0DCDEC10148D9CE018896DC
:1038B00045D98BC08E3209F488C0F80182898E32D6
:1038C00009F483C023FD81C080E04031510509F433
:1038D00081E0F8018483882349F4F70180858734E7
:1038E00009F073C081858E3709F46FC0D301F701E9
:1038F0008081803241F08E2F8E19883011F48EE253
:103900008D9380818D933196C557DF4F8881998142
:10391000CB58D040E817F90759F71C92F401808181
:103920009181009701F5F20107C08091C00085FFE9
:10393000FCCF31969093C60090819923B1F7F301A3
:1039400007C08091C00085FFFCCF31969093C600E0
:1039500090819923B1F78091C00085FFFCCFFAE0F8
:10396000F093C60032C08130910539F4F5018081B1
:10397000918101969183808328C0029731F5C757C2
:10398000DF4F88819981C958D040009731F0B30149
:103990000E945F12892B71F42BC0CA57DF4F9881A8
:1039A000C658D040292F30E0F50180819181281739
:1039B0003907F1F0CA57DF4FF881C658D040FF5F92
:1039C000CA57DF4FF883C658D040C601B701C95760
:1039D000DF4F48815981C758D0400E94E2741816C1
:1039E0000CF4A7CE05C0F7018081882309F062CFCF
:1039F000C157DF4F0FB6F894DEBF0FBECDBFCF91DA
:103A0000DF911F910F91FF90EF90DF90CF90BF90CB
:103A1000AF909F908F907F906F905F904F903F906E
:103A20002F900895EF92FF920F931F93DF93CF9300
:103A3000CDB7DEB76F970FB6F894DEBF0FBECDBF20
:103A40007C018C01025B1F4F805B9F4FF8019183CB
:103A5000808328E832E0E20EF31E21E030E0F70137
:103A6000219331937F011182108226E73DEFE20E10
:103A7000F31E049640E050E060E070E00E94B871F0
:103A8000F80120813181DE011596F90134968BE130
:103A900001900D928150E1F7F901828193819C831D
:103AA0008B8387E895E09A838983C70165E172E09B
:103AB0008E010F5F1F4FA80120E030E0D1DDC8016B
:103AC0003DD8F701E657FD4F808191816F960FB683
:103AD000F894DEBF0FBECDBFCF91DF911F910F9144
:103AE000FF90EF900895CF92DF92EF92FF920F93A5
:103AF0001F93DF93CF93CDB7DEB76F970FB6F894D0
:103B0000DEBF0FBECDBF7C016A018C01025B1F4F7F
:103B1000805B9F4FF8019183808328E832E0E20EBA
:103B2000F31E22E030E0F701219331937F0171838E
:103B3000608326E73DEFE20EF31E049640E050E07E
:103B400060E070E00E94B871F80120813181DE01EF
:103B50001596F90134968BE101900D928150E1F7B1
:103B6000F901828193819C838B8387E895E09A8316
:103B70008983C70165E172E08E010F5F1F4FA801C5
:103B800096016EDDC8010E949E156F960FB6F894DF
:103B9000DEBF0FBECDBFCF91DF911F910F91FF9080
:103BA000EF90DF90CF9008952F923F924F925F92C7
:103BB0006F927F928F929F92AF92BF92CF92DF923D
:103BC000EF92FF920F931F93DF93CF93CDB7DEB7A2
:103BD000AD970FB6F894DEBF0FBECDBF7C013B01A1
:103BE0004DA7DC0113968C91882309F447C3E1EDBE
:103BF000F1E0EE0EFF1ED7018C91EFE2FEEFEE0E2C
:103C0000FF1E882309F418C1222309F0E0C029EE21
:103C100031E0E20EF31ED7018C91E7E1FEEFEE0EEC
:103C2000FF1E882371F1EFEBF5E0949108C08091BD
:103C3000C00085FFFCCF9093C600319694919923E4
:103C4000B1F7E1EAF2E0949108C08091C00085FFED
:103C5000FCCF9093C600319694919923B1F78AE8EE
:103C600096E061E070E04AE050E00E94BB2E809157
:103C7000C00085FFFCCF8AE08093C6000E944832D6
:103C8000FDC2E6ECF5E0949108C08091C00085FF8C
:103C9000FCCF9093C600319694919923B1F7E8E850
:103CA000F2E0949108C08091C00085FFFCCF909312
:103CB000C600319694919923B1F7F30107C0809122
:103CC000C00085FFFCCF31969093C6009081992368
:103CD000B1F7EDE7F2E0949108C08091C00085FF54
:103CE000FCCF9093C600319694919923B1F7C70108
:103CF0002EEE31E0E20EF31EB7015EDA4BEF5FEF1E
:103D0000E40EF51ED7019C91E7E1FEEFEE0EFF1EDB
:103D10008DE8989FF0011124E251FE4FEE0DFF1D3A
:103D200007C08091C00085FFFCCF31969093C600FC
:103D300090819923B1F7E7E7F2E0949108C0809170
:103D4000C00085FFFCCF9093C600319694919923D3
:103D5000B1F723E832E0E20EF31ED7014D915D91F9
:103D60006D917C91EDE7FDEFEE0EFF1E8AE896E087
:103D70002AE030E00E946C2E8091C00085FFFCCFCD
:103D80008AE08093C600A70147515E4FDA012C916B
:103D9000E22FF0E0EE0FFF1FEE0FFF1FEE0DFF1DF5
:103DA000E651FE4F83E892E0E80EF91ED701AD9090
:103DB000BD90CD90DC908DE79DEFE80EF91EA082BE
:103DC000B182C282D3822F5FDA012C932FC0E6EC3E
:103DD000F5E0949108C08091C00085FFFCCF9093DE
:103DE000C600319694919923B1F7E6E6F2E09491FA
:103DF00008C08091C00085FFFCCF9093C60031962B
:103E000094919923B1F7F30107C08091C00085FF19
:103E1000FCCF31969093C60090819923B1F78091A1
:103E2000C00085FFFCCF8AE08093C600C7018253A3
:103E30009E4F0E94D17239C0E9EEF1E0EE0EFF1EF6
:103E4000D7011C92E7E1FEEFEE0EFF1EE6ECF5E077
:103E5000949108C08091C00085FFFCCF9093C6006C
:103E6000319694919923B1F7E5E5F2E0949108C079
:103E70008091C00085FFFCCF9093C600319694914D
:103E80009923B1F7F30107C08091C00085FFFCCFF3
:103E900031969093C60090819923B1F78091C0002C
:103EA00085FFFCCF8AE08093C600D70112961C9252
:103EB0001A8A1D8A198A188A87E895E09F878E8753
:103EC000F701E25BFF4F2FE230E0E20EF31EF182DA
:103ED000E08241ED5FEFE40EF51ED3018C918F324D
:103EE00009F08BC063010894C11CD11C4E010894D9
:103EF000811C911C2F0152E1252E312C2C0E3D1ED0
:103F000077C0C6016FE270E00E947D125C010097ED
:103F100009F47FC0C816D90608F07BC08C010C19C3
:103F20001D09C401B601A8010E94A612080D191DA1
:103F3000F8011082F40107C08091C00085FFFCCF1A
:103F400031969093C60090819923B1F78091C0007B
:103F500085FFFCCFFAE0F093C600D2016D917C9111
:103F60006115710519F460E070E002C06C5F7F4F6D
:103F7000C101A40121E00E94BD79882371F5E1E42B
:103F8000F2E0949108C08091C00085FFFCCF90932F
:103F9000C600319694919923B1F7FE01319607C07E
:103FA0008091C00085FFFCCF31969093C600908130
:103FB0009923B1F7EFE3F2E0949108C08091C0003B
:103FC00085FFFCCF9093C600319694919923B1F769
:103FD0008091C00085FFFCCF22C12EE030E02C0F85
:103FE0003D1FF2013183208365010894C11CD11C5F
:103FF000C114D10409F085CF0AC040E550E0E40EB9
:10400000F51EF182E08280EB9FEFE80EF91E83013E
:1040100001C08601F701E25BFF4F9DA5992309F4DA
:10402000BFC0608171816115710519F460E070E0B5
:1040300002C06C5F7F4FC70182539E4FA80121E0F1
:104040000E94BD79882309F47EC0AFEDB1E0EA0E8D
:10405000FB1EF70140815181628173812CE930E0C0
:10406000E20EF31ED7014D935D936D937C931397EE
:10407000E5E8FDEFEE0EFF1EE1E3F2E0949108C0EB
:104080008091C00085FFFCCF9093C600319694913B
:104090009923B1F7F80107C08091C00085FFFCCFDC
:1040A00031969093C60090819923B1F7E9E2F2E04E
:1040B000949108C08091C00085FFFCCF9093C6000A
:1040C000319694919923B1F78AE896E02AE030E09E
:1040D0000E946C2E8091C00085FFFCCF8AE0809307
:1040E000C60023E832E0E20EF31ED7011D921D92B6
:1040F0001D921C921397EDE7FDEFEE0EFF1EEBE114
:10410000F2E0949108C08091C00085FFFCCF9093AD
:10411000C600319694919923B1F78091C00085FF34
:10412000FCCF8AE08093C600C70160E070E0A80180
:10413000DADCD70152968C91882309F498C0870164
:104140000E5E1F4F94C0E7E0F2E0949108C08091AA
:10415000C00085FFFCCF9093C600319694919923BF
:10416000B1F7F80107C08091C00085FFFCCF319600
:104170009093C60090819923B1F7E5E0F2E0949125
:1041800008C08091C00085FFFCCF9093C600319697
:1041900094919923B1F78091C00085FFFCCF3FC077
:1041A000608171816115710519F460E070E002C0F1
:1041B0006C5F7F4FC70182539E4FA80126E50E9486
:1041C000BD79882381F5E1EFF1E0949108C08091F9
:1041D000C00085FFFCCF9093C6003196949199233F
:1041E000B1F7F80107C08091C00085FFFCCF319680
:1041F0009093C60090819923B1F7EFEEF1E094918E
:1042000008C08091C00085FFFCCF9093C600319616
:1042100094919923B1F78091C00085FFFCCF8AE08B
:104220008093C60027C081E0F7018083EDEDF1E0C7
:10423000949108C08091C00085FFFCCF9093C60088
:10424000319694919923B1F7F30107C08091C00092
:1042500085FFFCCF31969093C60090819923B1F7EA
:104260008091C00085FFFCCF8AE08093C600C80122
:104270000E9437D2CE010E960E949E15AD960FB6C3
:10428000F894DEBF0FBECDBFCF91DF911F910F918C
:10429000FF90EF90DF90CF90BF90AF909F908F9066
:1042A0007F906F905F904F903F902F900895EF9286
:1042B000FF920F931F93CF93DF93EC010E9425820F
:1042C0008E0107511E4FD8018C91BEECEB2EB1E050
:1042D000FB2EEC0EFD1E882399F1C7010E94D172BE
:1042E000F8016081615060838DE8689FB0011124FE
:1042F00062517E4F6C0F7D1FCE0141E021E054DC06
:10430000D801EC91F0E0EE0FFF1FEE0FFF1FEC0F56
:10431000FD1FE651FE4F4081518162817381CD576F
:10432000DD4F488359836A837B83C358D240C701DA
:104330000E94B8718B81882389F181E08A832EC025
:104340000E94FE7FC7010E94D1721A828FE291E023
:104350000E946F568091A00B882301F11092A00B50
:1043600080914F09C82FD0E0CC0FDD1FC951DD4E21
:1043700068817981882777FD8095982F0E9400ECCD
:104380002091C8043091C9044091CA045091CB04D3
:104390000E946CED181614F419821882DF91CF91E7
:1043A0001F910F91FF90EF900895FC0181E08183B0
:1043B000CF0140E021E0F8CBEF92FF920F931F93E3
:1043C000DF93CF93CDB7DEB76F970FB6F894DEBF0C
:1043D0000FBECDBF7C0188E892E0E80EF91EF70120
:1043E0001182108288E79DEFE80EF91E87010D5CAF
:1043F0001F4FC80140E050E060E070E00E94B871DB
:10440000DE011596F8018BE101900D928150E1F7E4
:10441000F70181A992A99C838B8387E895E09A8311
:104420008983C70165E172E08E010F5F1F4FA8010C
:1044300020E030E015D9C8010E949E156F960FB696
:10444000F894DEBF0FBECDBFCF91DF911F910F91CA
:10445000FF90EF900895CF93DF93EC011BAA1EAA63
:104460001AAA19AA87E895E098AB8FA7CC5ADF4F14
:10447000188223961882C755D040FE01E05BFF4F9B
:10448000CE5ADF4F19821882C255D0409183808363
:10449000DE01A159BF4FFD0120E030E0482F14821A
:1044A00017821382128240839183215E3F4F7F9651
:1044B00081E02633380799F7C855DE4F89E18883B4
:1044C00023961882689618822B9618822396188253
:1044D000C15DD140FE01E653FE4FC453DE4F198249
:1044E000188240839183C155DF4F188219821A8246
:1044F0001B822896188219821A821B82C358D240C6
:104500001A821B8218821982CB55DE4F19821882BB
:10451000CC5BDF4F1882FD01C90111920197E9F7C9
:10452000C256DF4F81E08883C758D2401EA61DA621
:104530000E94CCE3C158DD4F68577C4E8F4F9F4F90
:10454000688379838A839B83DF91CF910895CF938A
:10455000DF93EC01DB01E6ECF5E06491E6EAF5E0DF
:1045600054917AE03EC0288139819C91F999FECF1F
:104570001FBA32BD21BD90BD0FB6F894FA9AF99AD0
:104580000FBEF999FECF32BD21BDF89A80B58917CB
:1045900011F1962FE6ECF5E008C08091C00085FF90
:1045A000FCCF9093C600319694919923B1F7952F43
:1045B000E6EAF5E008C08091C00085FFFCCF90934B
:1045C000C600319694919923B1F78091C00085FF80
:1045D000FCCF7093C6002F5F3F4F3983288311961D
:1045E0004150442309F0BFCFDF91CF9108952F921E
:1045F0003F924F925F926F927F928F929F92AF9273
:10460000BF92CF92DF92EF92FF920F931F93DF93AF
:10461000CF93CDB7DEB762970FB6F894DEBF0FBE6B
:10462000CDBF0F2EF0E0CF2EF0E0DF2EF0E0EF2E2A
:10463000F0E0FF2EF02DCF82D886E986FA868091B1
:10464000160290911702A0911802B09119028B875F
:104650009C87AD87BE8784E690E09A8389838E012C
:104660000F5F1F4FC801BE01655F7F4F44E06FDFE2
:10467000C80160E47BE040E16ADFC80160E37BE001
:1046800040E165DFC80160E57BE040E160DFC80133
:1046900064E67BE044E05BDFC80168E67BE044E081
:1046A00056DFC8016CE67BE044E051DFC80160E6FC
:1046B0007BE044E04CDFC8016CE77BE044E047DF8F
:1046C000C8016CE27BE044E042DFC80160E77BE0C8
:1046D00044E03DDFC80164E77BE044E038DFC80127
:1046E00068E77BE044E033DFC80160E379E04CE059
:1046F0002EDFCF82D886E986FA8646E0E42EF12CBA
:1047000037E0C32ED12CCC0EDD1E04C0C801B6018B
:1047100044E01DDF0894E108F1088FEFE8168FEF01
:10472000F806A1F7C80161E773E142E010DFC801B4
:1047300063E773E142E00BDFC80165E773E142E044
:1047400006DFC80167E773E142E001DFC80169E7FE
:1047500073E142E0FCDEC8016BE773E142E0F7DEA3
:10476000C8016BE479E044E0F2DEEE24FF246E0140
:104770000894C11CD11C0F2EF0E04F2EF0E85F2EE4
:10478000FBE36F2EF5E47F2EF02D27E0222E312C57
:104790002C0E3D1E0F2EF0E08F2EF0E09F2EF0E04D
:1047A000AF2EF0E0BF2EF02D92E0E916F104ACF44C
:1047B000C60169ED74E044E0CADEC6016DED74E047
:1047C00044E0C5DEC60161EE74E044E0C0DEC6012F
:1047D00065EE74E044E0BBDE19C04F8258866986FE
:1047E0007A86C601B10144E0B2DE8F829886A9863E
:1047F000BA8603E010E004C0C601B10144E0A7DEC0
:1048000001501040EFEF0F3F1E07B1F70894E11C75
:10481000F11CF4E0EF16F10439F680E290E09C839D
:104820008B838E010F5F1F4FC801BE016D5F7F4FED
:1048300042E08DDE80E090E0A0E8BFE38F839887C0
:10484000A987BA8797E0892E912C8C0E9D1EC801EE
:10485000B40144E07CDEC8016FE179E041E077DE3D
:104860008DE8C82E84E0D82EEE24FF24B02E012F30
:1048700082E0E816F1044CF4F60180819181A28176
:10488000B3818F839887A987BA878B2D902FB40126
:1048900044E05DDE0894E11CF11C84E090E0C80E69
:1048A000D91E94E0E916F10419F780911A0290914B
:1048B0001B02A0911C02B0911D028F87988BA98BBF
:1048C000BA8B84E690E09E838D83CE010596BE016F
:1048D000615F7F4F44E03BDEE6ECF5E0949108C079
:1048E0008091C00085FFFCCF9093C60031969491D3
:1048F0009923B1F749815A81662757FD6095762F34
:1049000084E995E00E945638ECE8F5E0949108C0FF
:104910008091C00085FFFCCF9093C60031969491A2
:104920009923B1F78091C00085FFFCCF8AE0809386
:10493000C60062960FB6F894DEBF0FBECDBFCF9112
:10494000DF911F910F91FF90EF90DF90CF90BF907C
:10495000AF909F908F907F906F905F904F903F901F
:104960002F9008951F93CF93DF93182FC6ECD5E0B7
:10497000FE01949108C08091C00085FFFCCF909308
:10498000C600319694919923B1F7112321F5E5E3FF
:10499000F5E0949108C08091C00085FFFCCF909312
:1049A000C600319694919923B1F78091C00085FF9C
:1049B000FCCF8AE08093C600FE019491E6ECF5E01E
:1049C00008C08091C00085FFFCCF9093C60031964F
:1049D00094919923B1F74091400B5091410B609114
:1049E000420B7091430B8DE295E00E944338409159
:1049F000440B5091450B6091460B7091470B8AE236
:104A000095E00E9443384091480B5091490B6091CA
:104A10004A0B70914B0B87E295E00E94433840911E
:104A20004C0B50914D0B60914E0B70914F0B84E2EB
:104A300095E00E9443388091C00085FFFCCF8AE05A
:104A40008093C600FE019491E6ECF5E008C08091E9
:104A5000C00085FFFCCF9093C600319694919923B6
:104A6000B1F7112321F5EAE0F5E0949108C08091B7
:104A7000C00085FFFCCF9093C60031969491992396
:104A8000B1F78091C00085FFFCCF8AE08093C6001B
:104A9000FE019491E6ECF5E008C08091C00085FF2E
:104AA000FCCF9093C600319694919923B1F7409131
:104AB000300B5091310B6091320B7091330B81E0D0
:104AC00095E00E9443384091340B5091350B609132
:104AD000360B7091370B8EEF94E00E944338409173
:104AE000380B5091390B60913A0B70913B0B8BEF67
:104AF00094E00E94433840913C0B50913D0B6091F3
:104B00003E0B70913F0B88EF94E00E9443388091F8
:104B1000C00085FFFCCF8AE08093C600FE0194911F
:104B2000E6ECF5E008C08091C00085FFFCCF9093D3
:104B3000C600319694919923B1F7112321F5EAED3E
:104B4000F4E0949108C08091C00085FFFCCF909361
:104B5000C600319694919923B1F78091C00085FFEA
:104B6000FCCF8AE08093C600FE019491E6ECF5E06C
:104B700008C08091C00085FFFCCF9093C60031969D
:104B800094919923B1F74091500B5091510B609142
:104B9000520B7091530B81ED94E00E945638409176
:104BA000540B5091550B6091560B7091570B8EEC36
:104BB00094E00E9456384091580B5091590B6091E7
:104BC0005A0B70915B0B8BEC94E00E94563840912D
:104BD0005C0B50915D0B60915E0B70915F0B88ECEC
:104BE00094E00E9456388091C00085FFFCCF8AE097
:104BF0008093C600FE019491E6ECF5E008C0809138
:104C0000C00085FFFCCF9093C60031969491992304
:104C1000B1F7112321F5E6E9F4E0949108C0809101
:104C2000C00085FFFCCF9093C600319694919923E4
:104C3000B1F78091C00085FFFCCF8AE08093C60069
:104C4000FE019491E6ECF5E008C08091C00085FF7C
:104C5000FCCF9093C600319694919923B1F740917F
:104C6000640B5091650B6091660B7091670B8DE83A
:104C700094E00E9443384091680B5091690B609119
:104C80006A0B70916B0B8AE894E00E944338409164
:104C90006C0B50916D0B60916E0B70916F0B87E8F0
:104CA00094E00E9443388091C00085FFFCCF8AE0E9
:104CB0008093C600FE019491E6ECF5E008C0809177
:104CC000C00085FFFCCF9093C60031969491992344
:104CD000B1F7112321F5E4EDF3E0949108C0809140
:104CE000C00085FFFCCF9093C60031969491992324
:104CF000B1F78091C00085FFFCCF8AE08093C600A9
:104D0000FE019491E6ECF5E008C08091C00085FFBB
:104D1000FCCF9093C600319694919923B1F74091BE
:104D2000600B5091610B6091620B7091630B8BEC87
:104D300093E00E94433840917C0B50917D0B609131
:104D40007E0B70917F0B88EC93E00E94433840917A
:104D50002C0B50912D0B60912E0B70912F0B85EC2D
:104D600093E00E9456384091700B5091710B609106
:104D7000720B7091730B82EC93E00E944338409168
:104D8000740B5091750B6091760B7091770B8FEBD4
:104D900093E00E9443384091780B5091790B6091D9
:104DA0007A0B70917B0B8CEB93E00E9443388091DF
:104DB000C00085FFFCCF8AE08093C600FE0194917D
:104DC000E6ECF5E008C08091C00085FFFCCF909331
:104DD000C600319694919923B1F7112321F5EAEA9F
:104DE000F3E0949108C08091C00085FFFCCF9093C0
:104DF000C600319694919923B1F78091C00085FF48
:104E0000FCCF8AE08093C600FE019491E6ECF5E0C9
:104E100008C08091C00085FFFCCF9093C6003196FA
:104E200094919923B1F740913009509131096091E3
:104E300032097091330981EA93E00E94433840912E
:104E400034095091350960913609709137098EE91E
:104E500093E00E944338409138095091390960919C
:104E60003A0970913B098BE993E00E9443388091A5
:104E7000C00085FFFCCF8AE08093C600FE019491BC
:104E8000E6ECF5E008C08091C00085FFFCCF909370
:104E9000C600319694919923B1F7112321F5EDE8DD
:104EA000F3E0949108C08091C00085FFFCCF9093FF
:104EB000C600319694919923B1F78091C00085FF87
:104EC000FCCF8AE08093C600FE019491E6ECF5E009
:104ED00008C08091C00085FFFCCF9093C60031963A
:104EE00094919923B1F74091D9045091DA046091DB
:104EF000DB047091DC0483E893E00E944338609106
:104F0000DD047091DE048091DF049091E0040E9442
:104F1000108BAB01BC0180E893E00E9443386091A4
:104F2000E1047091E2048091E3049091E4040E9412
:104F30001C8BAB01BC018DE793E00E94433880914C
:104F4000C00085FFFCCF8AE08093C600FE019491EB
:104F5000E6ECF5E008C08091C00085FFFCCF90939F
:104F6000C600319694919923B1F780911F09882347
:104F700009F459C0112321F5EAE6F3E0949108C041
:104F80008091C00085FFFCCF9093C600319694912C
:104F90009923B1F78091C00085FFFCCF8AE0809310
:104FA000C600FE019491E6ECF5E008C08091C000D7
:104FB00085FFFCCF9093C600319694919923B1F769
:104FC00040918D0450918E0460918F0470919004F3
:104FD00080E693E00E9443388091C00085FFFCCFBB
:104FE0008AE08093C600FE019491E6ECF5E008C0EB
:104FF0008091C00085FFFCCF9093C60031969491BC
:105000009923B1F7409191045091920460919304D7
:105010007091940483E593E00E9443388091C0002E
:1050200085FFFCCF14C01123A9F4E7E3F3E09491CA
:1050300008C08091C00085FFFCCF9093C6003196D8
:1050400094919923B1F78091C00085FFFCCF8AE04D
:105050008093C600FE019491E6ECF5E008C08091D3
:10506000C00085FFFCCF9093C600319694919923A0
:10507000B1F7112369F5E2E2F3E0949108C0809161
:10508000C00085FFFCCF9093C60031969491992380
:10509000B1F78091C00085FFFCCF8AE08093C60005
:1050A000FE019491E6ECF5E008C08091C00085FF18
:1050B000FCCF9093C600319694919923B1F708C024
:1050C0008091C00085FFFCCF31969093C60002C04E
:1050D000EEE1F2E09081992399F78AE896E063E5A2
:1050E00073E04AE050E047D640914B0950914C099B
:1050F00060914D0970914E0970588FE193E00E94C4
:1051000043388091C00085FFFCCF8AE08093C600C1
:10511000DF91CF911F910895DF93CF93CDB7DEB785
:10512000E4970FB6F894DEBF0FBECDBFDE01119637
:10513000E1E3F5E080E101900D928150E1F7DE01BD
:105140009196EDE1F5E084E101900D928150E1F757
:10515000DE015196EDE0F5E080E101900D92815085
:10516000E1F789819A81AB81BC818093400B909358
:10517000410BA093420BB093430B89A19AA1ABA121
:10518000BCA18093300B9093310BA093320BB09362
:10519000330B89899A89AB89BC898093500B909392
:1051A000510BA093520BB093530B8D819E81AF8115
:1051B000B8858093440B9093450BA093460BB09316
:1051C000470B8DA19EA1AFA1B8A58093340B9093FE
:1051D000350BA093360BB093370B8D899E89AF8921
:1051E000B88D8093540B9093550BA093560BB093AE
:1051F000570B89859A85AB85BC858093480B909326
:10520000490BA0934A0BB0934B0B89A59AA5ABA56C
:10521000BCA58093380B9093390BA0933A0BB093B5
:105220003B0B898D9A8DAB8DBC8D8093580B9093E1
:10523000590BA0935A0BB0935B0B8D859E85AF8560
:10524000B88980934C0B90934D0BA0934E0BB09369
:105250004F0B8DA59EA5AFA5B8A980933C0B90934D
:105260003D0BA0933E0BB0933F0B8D8D9E8DAF8D6C
:10527000B8A180935C0B90935D0BA0935E0BB093F1
:105280005F0B0E94405D80E090E8ABE3B5E4809363
:10529000640B9093650BA093660BB093670B8093A0
:1052A000680B9093690BA0936A0BB0936B0B809380
:1052B0006C0B90936D0BA0936E0BB0936F0B20E073
:1052C00030E040E050E02093600B3093610B40935E
:1052D000620B5093630B80E29EE4A0E0B0E0809309
:1052E0002C0B90932D0BA0932E0BB0932F0B209390
:1052F0007C0B30937D0B40937E0B50937F0B80E0B3
:1053000090E0A0EAB1E48093700B9093710BA093AE
:10531000720BB093730B8DEC9CECACECBEE3809302
:10532000740B9093750BA093760BB093770B80E082
:1053300090E0A0EAB0E48093780B9093790BA0936F
:105340007A0BB0937B0B2093380930933909409343
:105350003A0950933B09209334093093350940931F
:10536000360950933709209330093093310940931F
:105370003209509333098CED90E09093721380932F
:10538000711386E490E090937413809373131092DA
:1053900076131092751380EF90E0909378138093BA
:1053A00077138EE690E090937A138093791310929E
:1053B0007C1310927B138AE999E9A1EBB1E4809305
:1053C000D9049093DA04A093DB04B093DC0461E782
:1053D0007DE38AE89FE30E940A8B6093DD0470936B
:1053E000DE048093DF049093E00460E070E084EEDC
:1053F00092E40E94168B6093E1047093E204809320
:10540000E3049093E40480E090E0A0E8BFE380939D
:10541000E5049093E604A093E704B093E8040E94A7
:10542000078A10921F0980E090E0A0E4B0E4809326
:105430008D0490938E04A0938F04B0939004809376
:10544000910490939204A0939304B09394044AD748
:10545000E6ECF5E0949108C08091C00085FFFCCF98
:105460009093C600319694919923B1F7E5E4F5E065
:10547000949108C08091C00085FFFCCF9093C60036
:10548000319694919923B1F78091C00085FFFCCFAC
:105490008AE08093C600E4960FB6F894DEBF0FBE94
:1054A000CDBFCF91DF9108954F925F926F927F921F
:1054B0008F929F92AF92BF92CF92DF92EF92FF9224
:1054C0000F931F93DF93CF93CDB7DEB72E970FB611
:1054D000F894DEBF0FBECDBF80911A0290911B02DF
:1054E000A0911C02B0911D028F839887A987BA876B
:1054F000FE01339604E610E0F999FECF12BD01BD1E
:10550000F89A80B580830F5F1F4F0836110511F0A0
:105510003196F2CFCE010796BE016D5F7F4F43E01B
:1055200050E00E949812009711F0F6DD91C280E0E1
:1055300090E0A0E0B0E08B879C87AD87BE87E0E479
:10554000FBE0F999FECF12BD01BDF89A80B58083CA
:105550000F5F1F4F0837110511F03196F2CFE0E3CE
:10556000FBE0F999FECF12BD01BDF89A80B58083AA
:105570000F5F1F4F0838110511F03196F2CFE0E5AB
:10558000FBE0F999FECF12BD01BDF89A80B580838A
:105590000F5F1F4F0839110511F03196F2CF0E94AD
:1055A000405DE4E6FBE0F999FECF12BD01BDF89A3B
:1055B00080B580830F5F1F4F0C39110511F03196B4
:1055C000F2CFE8E6FBE0F999FECF12BD01BDF89AF3
:1055D00080B580830F5F1F4F003A110511F031969F
:1055E000F2CFECE6FBE0F999FECF12BD01BDF89ACF
:1055F00080B580830F5F1F4F043A110511F031967B
:10560000F2CFE0E6FBE0F999FECF12BD01BDF89ABA
:1056100080B580830F5F1F4F083A110511F0319656
:10562000F2CFECE7FBE0F999FECF12BD01BDF89A8D
:1056300080B580830F5F1F4F0C3A110511F0319632
:10564000F2CFECE2FBE0F999FECF12BD01BDF89A72
:1056500080B580830F5F1F4F003B110511F031961D
:10566000F2CFE0E7FBE0F999FECF12BD01BDF89A59
:1056700080B580830F5F1F4F043B110511F03196F9
:10568000F2CFE4E7FBE0F999FECF12BD01BDF89A35
:1056900080B580830F5F1F4F083B110511F03196D5
:1056A000F2CFE8E7FBE0F999FECF12BD01BDF89A11
:1056B00080B580830F5F1F4F0C3B110511F03196B1
:1056C000F2CFE0E3F9E0F999FECF12BD01BDF89AFF
:1056D00080B580830F5F1F4F083C110511F0319694
:1056E000F2CF7BE0472E512C4C0E5D1EAE01425F87
:1056F0005F4F32019801F999FECF32BD21BDF89A72
:1057000080B5F30180832F5F3F4F6416750621F04B
:105710000894611C711CEFCF0C5F1F4F003E1105F8
:1057200041F7E1E7F3E1F999FECF12BD01BDF89A27
:1057300080B580830F5F1F4F023E110511F0319637
:10574000F2CFE3E7F3E1F999FECF12BD01BDF89A7C
:1057500080B580830F5F1F4F043E110511F0319615
:10576000F2CFE5E7F3E1F999FECF12BD01BDF89A5A
:1057700080B580830F5F1F4F063E110511F03196F3
:10578000F2CFE7E7F3E1F999FECF12BD01BDF89A38
:1057900080B580830F5F1F4F083E110511F03196D1
:1057A000F2CFE9E7F3E1F999FECF12BD01BDF89A16
:1057B00080B580830F5F1F4F0A3E110511F03196AF
:1057C000F2CFEBE7F3E1F999FECF12BD01BDF89AF4
:1057D00080B580830F5F1F4F0C3E110511F031968D
:1057E000F2CFEBE4F9E0F999FECF12BD01BDF89AD2
:1057F00080B580830F5F1F4F003F110511F0319678
:10580000F2CF88249924A12C61E0B62E9501205175
:105810003040F201F999FECF32BD21BDF89A80B532
:1058200080832F5F3F4FE615F70511F03196F2CFD9
:1058300054EFC52E5FEFD52ECA0CDB1CF2E08F169D
:1058400091040CF062C0EB84FC840D851E85C801B8
:10585000B70120E030E84BE355E40E945EEB88237B
:1058600009F453C0E092D904F092DA040093DB0407
:105870001093DC04EDEDF4E0F999FECFD2BCC1BC8D
:10588000F89A80B580830894C11CD11C84E0E03E66
:10589000F80711F03196F0CF950128503040E1EE35
:1058A000F4E0F999FECF32BD21BDF89A80B580832E
:1058B0002F5F3F4F94E0E43EF90711F03196F1CFAE
:1058C000950124503040E5EEF4E0F999FECF32BD69
:1058D00021BDF89A80B580832F5F3F4F84E0E83E7A
:1058E000F807C9F03196F1CF3196F999FECF32BD64
:1058F00021BDF89A80B580832F5F3F4FE615F705ED
:1059000099F7E4E0F0E0CE0EDF1ECA14DB0419F0D4
:10591000F2019601EACF0894811C911C80E190E08D
:10592000A80EB91E94E08916910409F06FCFFE010C
:10593000319620E331E0F999FECF32BD21BDF89ACE
:1059400080B580832F5F3F4F81E02233380711F00D
:105950003196F1CFF201F999FECF32BD21BDF89A0F
:1059600080B580832F5F3F4F91E02633390711F0D8
:105970003196F1CFF999FECF86E391E092BD81BDDA
:10598000F89A80B580931F0960E070E047E351E02A
:10599000F2019A01F999FECF32BD21BDF89A80B586
:1059A00080832F5F3F4FE615F70511F03196F2CF58
:1059B0004C5F5F4F623071055CF4FA01EE5AFC4FA8
:1059C0008B859C85AD85BE8580839183A283B383BF
:1059D0006F5F7F4F64307105D9F684D40E94078AC7
:1059E000E6ECF5E0949108C08091C00085FFFCCF03
:1059F0009093C600319694919923B1F7FE013796A2
:105A000007C08091C00085FFFCCF31969093C600FF
:105A100090819923B1F78FE695E047E451E060E08B
:105A200070E00E945638E7E6F5E0949108C0809156
:105A3000C00085FFFCCF9093C600319694919923C6
:105A4000B1F78091C00085FFFCCF8AE08093C6004B
:105A50002E960FB6F894DEBF0FBECDBFCF91DF916B
:105A60001F910F91FF90EF90DF90CF90BF90AF907C
:105A70009F908F907F906F905F904F9008951F92AE
:105A80000F920FB60F920BB60F9211242F933F93E4
:105A90004F938F939F93EF93FF934091C600E091B4
:105AA0008606F091870631969F012F7730703197E7
:105AB00080918806909189062817390739F0EA5FA6
:105AC000F94F40833093870620938606FF91EF912C
:105AD0009F918F914F913F912F910F900BBE0F90FF
