:100000000C943E0F0C946B0F0C946B0F0C946B0FB5
:100010000C946B0F0C946B0F0C946B0F0C946B0F78
:100020000C946B0F0C946B0F0C946B0F0C946B0F68
:100030000C946B0F0C9428E70C946B0F0C946B0FC3
:100040000C946B0F0C9439820C946B0F0C946B0F07
:100050000C946B0F0C946B0F0C948A900C9475E3BA
:100060000C946B0F0C94302D0C946B0F0C946B0F45
:100070000C946B0F0C946B0F0C946B0F0C946B0F18
:100080000C946B0F0C946B0F0C946B0F0C946B0F08
:100090000C946B0F0C946B0F0C946B0F0C94FCDF97
:1000A0000C946B0F0C946B0F0C946B0F0C946B0FE8
:1000B0000C946B0F0C946B0F0C946B0F0C946B0FD8
:1000C0000C946B0F0C946B0F0C946B0F0C946B0FC8
:1000D0000C946B0F0C946B0F0C946B0F0C946B0FB8
:1000E0000C946B0F084AD73B3BCE016E84BCBFFD1E
:1000F000C12F3D6C74319ABD56833DDA3D00C77FF8
:1001000011BED9E4BB4C3E916BAAAABE0000008090
:100110003F05A84CCDB2D44EB93836A9020C50B91F
:10012000918688083CA6AAAA2ABE000000803F4DFE
:10013000383420582059205A20450043616E6E6F94
:100140007420656E746572207375626469723A20FA
:10015000004D3234004D3233202573006175746FC9
:1001600025692E67006572726F72207772697469F3
:100170006E6720746F2066696C65004E6F74205343
:1001800044207072696E74696E67002F00534420BA
:100190007072696E74696E67206279746520002ED2
:1001A0000044656C6574696F6E206661696C656496
:1001B0002C2046696C653A200046696C65206465B0
:1001C0006C657465643A002E006F70656E20666120
:1001D000696C65642C2046696C653A200057726929
:1001E00074696E6720746F2066696C653A20002E12
:1001F000006F70656E206661696C65642C204669CD
:100200006C653A20002E006F70656E206661696C27
:1002100065642C2046696C653A200046696C65204F
:1002200073656C6563746564002053697A653A2070
:100230000046696C65206F70656E65643A20002E1B
:10024000006F70656E206661696C65642C2046697C
:100250006C653A20004E6F77206672657368206681
:10026000696C653A20004E6F7720646F696E672075
:1002700066696C653A20002220706F73002220703E
:100280006172656E743A2200535542524F5554497B
:100290004E452043414C4C207461726765743A228C
:1002A00000747279696E6720746F2063616C6C20D2
:1002B0007375622D67636F64652066696C65732072
:1002C0007769746820746F6F206D616E79206C653A
:1002D00076656C732E204D4158206C6576656C20D8
:1002E00069733A0053442063617264206F6B006F3E
:1002F00070656E526F6F74206661696C656400761C
:100300006F6C756D652E696E6974206661696C65C8
:100310006400534420696E6974206661696C002032
:100320005A005A2D50726F6265204F66667365746D
:1003300020286D6D293A0046696C616D656E7420E8
:1003400073657474696E67733A2044697361626C93
:100350006564002020204D3230302054312044008C
:100360002020204D32303020440046696C616D659C
:100370006E742073657474696E67733A002044006C
:100380002049002020204D33303120500050494476
:100390002073657474696E67733A00205A0020599F
:1003A0000020204D323036205800486F6D65206F98
:1003B000666673657420286D6D293A00204500201B
:1003C0005A0020580020420020540020204D323096
:1003D00035205300416476616E63656420766172F6
:1003E0006961626C65733A20533D4D696E206665A4
:1003F00065647261746520286D6D2F73292C2054FB
:100400003D4D696E2074726176656C206665656429
:100410007261746520286D6D2F73292C20423D6D0B
:10042000696E696D756D207365676D656E74207496
:10043000696D6520286D73292C20583D6D617869A0
:100440006D756D205859206A65726B20286D6D2F6F
:1004500073292C20205A3D6D6178696D756D205A85
:10046000206A65726B20286D6D2F73292C20204522
:100470003D6D6178696D756D2045206A65726B20F0
:10048000286D6D2F73290020540020520020204D2C
:10049000323034205000416363656C657261746969
:1004A0006F6E733A20503D7072696E74696E672C7E
:1004B00020523D7265747261637420616E642054D1
:1004C0003D74726176656C00204500205A00205909
:1004D0000020204D3230312058004D6178696D7513
:1004E0006D20416363656C65726174696F6E20286D
:1004F0006D6D2F7332293A00204500205A00205993
:100500000020204D3230332058004D6178696D75E0
:100510006D2066656564726174657320286D6D2F4A
:1005200073293A00204500205A0020590020204D10
:1005300039322058005374657073207065722075CD
:100540006E69743A0048617264636F646564204444
:10055000656661756C742053657474696E67732089
:100560004C6F6164656400206279746573290020B2
:1005700073746F7265642073657474696E67732039
:1005800072657472696576656420280020627974EA
:100590006573290053657474696E67732053746FB3
:1005A0007265642028004572726F722077726974D8
:1005B000696E6720746F20454550524F4D210045AC
:1005C00072726F723A006563686F3A00414E474538
:1005D00048414C54454E2E005072696E746572202D
:1005E00073746F707065642064756520746F206526
:1005F00072726F72732E2046697820746865206568
:1006000072726F7220616E6420757365204D393986
:100610003920746F20726573746172742E202854AF
:10062000656D70657261747572652069732072659D
:100630007365742E20536574206974206166746537
:10064000722072657374617274696E6729004B4918
:100650004C4C45442E005072696E7465722068617E
:100660006C7465642E206B696C6C28292063616C46
:100670006C656421006F6B00526573656E643A208F
:10068000002200556E6B6E6F776E20636F6D6D612B
:100690006E643A20220057617274656E2E2E2E0011
:1006A000FF01FF00007A4300004843000048430078
:1006B00000A0400000A0400000004000000000003A
:1006C000004843000000000000000000000000009F
:1006D00000000000007A43000048430000484368DF
:1006E000656C6C6F4245457072757361204265722E
:1006F00065697400447275636B2067656874207760
:100700006569746572005761727465206175662051
:100710004E75747A65722E004D6F746F72656E201F
:1007200045696E67657363682E00456E642066696F
:100730006C65206C69737400426567696E20666938
:100740006C65206C697374002569206D696E2C20BE
:10075000256920736563002042403A0020403A003A
:10076000202F003A00205400202F0020423A002081
:100770002F006F6B20543A0048656174696E6720E2
:10078000646F6E652E0020573A0020453A00543AB7
:100790000048656174696E672E2E2E0042656420E4
:1007A000646F6E652E0020423A0020453A00543AAC
:1007B000004265642048656174696E672E00686553
:1007C0006C6C6F4245457072757361204175732E74
:1007D000004649524D574152455F4E414D453A4DB5
:1007E00061726C696E2056313B20537072696E7471
:1007F00065722F6772626C206D6173687570206618
:100800006F722067656E36204649524D57415245FA
:100810005F55524C3A68747470733A2F2F6769743D
:100820006875622E636F6D2F4D61726C696E4669DB
:10083000726D776172652F4D61726C696E205052D6
:100840004F544F434F4C5F56455253494F4E3A31E8
:100850002E30204D414348494E455F545950453A4A
:1008600068656C6C6F4245457072757361204558C0
:100870005452554445525F434F554E543A322055D9
:100880005549443A30303030303030302D3030300F
:10089000302D303030302D303030302D3030303061
:1008A00030303030303030300A00205A3A00205991
:1008B0003A0020436F756E7420583A200020453A64
:1008C00000205A3A0020593A00583A007A5F6D6188
:1008D000783A20007A5F6D696E3A2000795F6D6129
:1008E000783A2000795F6D696E3A2000785F6D611B
:1008F000783A2000785F6D696E3A20005365747411
:10090000696E672054726176656C20416363656C23
:1009100065726174696F6E3A200053657474696E14
:1009200067205265747261637420416363656C650E
:10093000726174696F6E3A200053657474696E67F2
:10094000205072696E74696E6720416363656C65DF
:10095000726174696F6E3A2000486F74656E64202E
:100960006F6666736574733A005A204F66667365E6
:1009700074203A20007A5F6D61783A20007A5F6DCA
:10098000696E3A20005A204F6666736574005A20DB
:100990004F6666736574206F6B0046696C616D65A8
:1009A0006E74207765636873656C6E0025692068D6
:1009B0006F757273202569206D696E75746573009B
:1009C000446F6E65207072696E74696E6720666927
:1009D0006C6500414E474548414C54454E2E0050F1
:1009E00072696E7465722073746F707065642064D0
:1009F000756520746F206572726F72732E20466960
:100A00007820746865206572726F7220616E642050
:100A1000757365204D39393920746F207265737490
:100A20006172742E202854656D70657261747572E0
:100A3000652069732072657365742E205365742078
:100A40006974206166746572207265737461727472
:100A5000696E6729004E6F204C696E65204E756D7A
:100A6000626572207769746820636865636B73756B
:100A70006D2C204C617374204C696E653A20004ED9
:100A80006F20436865636B73756D207769746820A8
:100A90006C696E65206E756D6265722C204C617399
:100AA00074204C696E653A2000636865636B7375EA
:100AB0006D206D69736D617463682C204C61737473
:100AC000204C696E653A20004C696E65204E756D4C
:100AD000626572206973206E6F74204C617374209C
:100AE0004C696E65204E756D6265722B312C204C01
:100AF000617374204C696E653A20004D31313000CD
:100B0000446F6E6520736176696E672066696C65F7
:100B10002E006F6B004D3239002020506C616E6EDC
:100B2000657242756666657242797465733A200033
:100B30002046726565204D656D6F72793A20004FD1
:100B40006374203134203230313500436F6D706969
:100B50006C65643A20004D6F64205468696E6B3395
:100B60004420505400207C20417574686F723A20F4
:100B7000004F637420313420323031352030303A28
:100B800030353A323700204C6173742055706461FF
:100B90007465643A2000312E302E31004D61726C44
:100BA000696E0020536F66747761726520526573B9
:100BB000657400205761746368646F6720526573C1
:100BC0006574002042726F776E206F7574205265D5
:100BD000736574002045787465726E616C2052658F
:100BE00073657400506F776572557000737461722D
:100BF00074002200656E717565696E6720220020A1
:100C0000746F6F206C6F6E6720657874727573698E
:100C10006F6E2070726576656E7465640020636F18
:100C20006C6420657874727573696F6E207072657C
:100C300076656E746564007C3C3E5E2B3D3F2F5BA9
:100C40005D3B2C2A225C0045313A200045303A2099
:100C5000005A3A2000593A2000583A20004D5331AA
:100C60002C4D53322050696E730A0024F404D920AD
:100C70001BC40C5C0E9804C4095F0265077101F483
:100C800005F900FB04B30048048700C1036900585C
:100C900003550003034500BE023A008402310053AD
:100CA000022A002902250004022000E4011C00C8D9
:100CB000011900AF0117009801140084011300719D
:100CC0000110006101100051010E0043010D0036BA
:100CD000010B002B010B0020010B00150109000C7A
:100CE00001090003010800FB000800F3000800EB05
:100CF000000700E4000600DE000600D8000600D26F
:100D0000000600CC000500C7000500C2000500BDBC
:100D1000000400B9000400B5000400B1000400ADF7
:100D2000000400A9000400A5000300A20003009F26
:100D30000004009B0003009800030095000200934C
:100D4000000300900003008D0002008B0003008868
:100D50000002008600020084000300810002007F80
:100D60000002007D0002007B000200790002007793
:100D700000010076000200740002007200010071A0
:100D80000002006F0002006D0001006C0002006AAA
:100D900000010069000200670001006600010065B3
:100DA00000010064000200620001006100010060B7
:100DB0000001005F0002005D0001005C0001005BBB
:100DC0000001005A000100590001005800010057BD
:100DD00000010056000100550001005400010053BD
:100DE00000000053000100520001005100010050BA
:100DF0000001004F0001004E0000004E0001004DB8
:100E00000001004C0001004B0000004B0001004AB3
:100E100000010049000100480000004800010047AF
:100E200000010046000000460001004500000045AA
:100E300000010044000100430000004300010042A3
:100E4000000000420001004100000041000100409C
:100E50000001003F0000003F0001003E0000003E96
:100E60000001003D0000003D0001003C0000003C8E
:100E70000000003C0001003B0000003B0001003A84
:100E80000000003A0001003900000039000100387C
:100E90000000003800000038000100370000003773
:100EA0000001003600000036000000360001003569
:100EB000000000350000003500010034000000345F
:100EC0000000003400010033000000330000003354
:100ED0000001003200000032000000320001003149
:100EE000000000310000003100010030000000303F
:100EF000000000300001002F0000002F0000002F34
:100F00000000002F0001002E0000002E0000002E27
:100F10000001002D0000002D0000002D0000002D1C
:100F20000001002C0000002C0000002C0000002C10
:100F30000001002B0000002B0000002B0000002B04
:100F40000001002A0000002A0000002A0000002AF8
:100F500000010029000000290000002900000029EC
:100F600000000029000100280000002800000028DF
:100F700000000028000000280001002700000027D2
:100F800000000027000000270000002700010026C5
:100F900000000026000000260000002600000026B9
:100FA00000010025000000250000002500000025AC
:100FB000000000250000002500010024000000249E
:100FC0000000002400000024000000240001002391
:100FD0000000002300000023000000230000002385
:100FE0000000002300000023000100220000002276
:100FF0000000002200000022000000220000002269
:10100000000100210000002100000021000000215B
:10101000000000210000002100000021000100204C
:101020000000002000000020000000200000002040
:101030000000002000000020000000200001001F30
:101040000000001F0000001F0000001F0000001F24
:101050000000001F0000001F0001001E0000001E15
:101060000000001E0000001E00000024F4D43050D8
:10107000C38E20C2A24017828B7011127A910D810B
:101080006CD90AA861E108C7586607615143061E7A
:101090004B5D05C145A7041A411104093D98037130
:1010A0003931034036DB0265339102D4305402807B
:1010B0002E1D02632CEE01752AC501B028A0011077
:1010C0002781018F2564012B244B01E0223401ACE0
:1010D000211F018D200D01801FFC00841EED009753
:1010E0001DDF00B81CD200E61BC600201BBC00643C
:1010F0001AB200B219A8000A19A0006A189900D102
:1011000017910040178B00B516840031167E00B38E
:101110001579003A157300C7146F0058146A00EE71
:101120001366008813630025135E00C7125B006C12
:1011300012570015125400C111510070114F0021B7
:10114000114B00D61049008D104700461044000294
:10115000104200C00F4000800F3E00420F3C0006CE
:101160000F3B00CB0E3800930E37005C0E35002786
:101170000E3400F30D3200C10D3100900D300060CF
:101180000D2E00320D2D00050D2C00D90C2B00AEBC
:101190000C2900850C29005C0C2700350C27000E5B
:1011A0000C2600E80B2400C40B2400A00B23007DB8
:1011B0000B23005A0B2100390B2100180B2000F8DB
:1011C0000A1F00D90A1E00BB0A1E009D0A1D0080CE
:1011D0000A1D00630A1C00470A1B002C0A1B001191
:1011E0000A1A00F7091A00DD091900C4091900AB31
:1011F000091900920917007B091800630917004CB0
:1012000009160036091600200916000A091500F50E
:10121000081500E0081400CC081400B8081400A455
:10122000081400900813007D0812006B0813005882
:101230000812004608120034081100230811001299
:1012400008110001081100F0071000E0071000D09D
:10125000071000C0071000B0070F00A10710009191
:10126000070E0083070F0074070F0065070E005775
:10127000070E0049070E003B070D002E070E002049
:10128000070D0013070D0006070D00F9060C00ED11
:10129000060D00E0060C00D4060C00C8060C00BCCD
:1012A000060C00B0060C00A4060B0099060C008D7D
:1012B000060B0082060B0077060B006C060B006124
:1012C000060A0057060B004C060A0042060A0038C0
:1012D000060A002E060A0024060A001A060A001052
:1012E00006090007060A00FD050900F4050900EBE0
:1012F000050900E2050900D9050900D0050900C764
:10130000050900BE050900B5050800AD050800A5E2
:101310000509009C050800940508008C0508008458
:101320000508007C050800740508006C05070065C9
:101330000508005D050700560508004E0507004733
:101340000507004005080038050700310507002A99
:10135000050700230507001C050600160507000FFA
:101360000507000805060002050700FB040600F556
:10137000040700EE040600E8040600E2040700DBB0
:10138000040600D5040600CF040600C9040600C305
:10139000040600BD040600B7040600B1040500AC55
:1013A000040600A6040600A00405009B04060095A0
:1013B000040500900406008A0405008504050080E9
:1013C0000406007A04050075040500700405006B2E
:1013D00004050066040500610405005C040500576F
:1013E000040500520405004D0405004804050043AF
:1013F0000405003E0404003A0405003504050030ED
:101400000404002C04050027040400230405001E26
:101410000404001A04040016040500110404000D5D
:10142000040400090405000404040000040400FC92
:10143000030400F8030400F4030400F0030400ECC8
:10144000030400E8030400E4030400E0030400DCF8
:10145000030400D8030400D4030400D0030400CC28
:10146000030400C8030300C5030300656E647374BE
:101470006F7073206869743A205A00205A3A0065E8
:101480006E6473746F7073206869743A2059002019
:10149000593A00656E6473746F7073206869743AAA
:1014A00020580020583A00656E6473746F70732082
:1014B0006869743A2000202D20496E76616C696459
:1014C000206578747275646572206E756D626572E0
:1014D00020210070012C0190012701B0012201C0E0
:1014E000011D01F00118011002130130020E01600C
:1014F00002090190020401C002FF000003FA00404B
:1015000003F5008003F000D003EB002004E6007038
:1015100004E100E004DC004005D700C005D2004033
:1015200006CD00D006C8008007C3003008BE00F01A
:1015300008B900C009B400B00AAF00B00BAA00D0CF
:101540000CA500000EA000500F9B00C0109600508C
:1015500012910000148C00C0158700B0178200B0F3
:10156000197D00D01B7800001E730040206E009093
:10157000226900F024640040275F0090295A00E0AF
:101580002B5500102E500020304B0010324600E04A
:1015900033410090353C001037370070383200A0DE
:1015A000392D00B03A2800A03B2300603C1E0010FB
:1015B0003D1900903D1400103E0F00703E0A00C01F
:1015C0003E0500003F0000504944204175746F748F
:1015D000756E652066696E69736865642120507553
:1015E0007420746865206C617374204B702C204BE0
:1015F0006920616E64204B6420636F6E7374616E4A
:1016000074732066726F6D2061626F766520696EFB
:10161000746F20436F6E66696775726174696F6E6F
:101620002E6800504944204175746F74756E6520B2
:101630006661696C6564212074696D656F757400FD
:1016400020403A006F6B20543A006F6B20423A0002
:10165000504944204175746F74756E6520666169E8
:101660006C6564212054656D706572617475726576
:1016700020746F6F206869676800204B643A20000F
:10168000204B693A2000204B703A200020436C61C7
:10169000737369632050494420002054753A200038
:1016A000204B753A2000206D61783A2000206D694A
:1016B0006E3A200020643A200020626961733A206B
:1016C000002D2D3A2D2D002D2D2D005344000120ED
:1016D000000120000120004B65696E652053444BDA
:1016E000617274650053444B617274650053442DFC
:1016F000447275636B204162627275636800534483
:101700002D447275636B205765697465720053448C
:101710002D447275636B2050617573650045696E69
:101720007374656C6C756E67656E00566F7262657A
:1017300072656974756E67004A7573746965727550
:101740006E6700496E666F00052E2E004861757049
:10175000746D656EF5004D3234004D3233202573C3
:10176000004D383420582059205A204500537461C8
:101770006E646172646B6F6E6669672E00455052CD
:101780004F4D206C6164656E004550524F4D207383
:10179000706569636865726E0046696C616D656E3F
:1017A00074004265776567756E670054656D706596
:1017B00072617475720048617570746D656EF500C4
:1017C00046696C616D656E74204420320046696C18
:1017D000616D656E74204420320046696C616D65F0
:1017E0006E74204420310046696C616D656E742012
:1017F000442031004175730045696E0041757300E6
:1018000045696E004520696E206D6D330045696E37
:101810007374656C6C756E67656E004520737465D6
:1018200070732F6D6D00452073746570732F6D6D2F
:10183000005A2073746570732F6D6D005A20737495
:101840006570732F6D6D00592073746570732F6D03
:101850006D00592073746570732F6D6D005820737F
:10186000746570732F6D6D00582073746570732FDD
:101870006D6D00412D74726176656C00412D74723E
:101880006176656C00412052657472616374004139
:1018900020526574726163740041206D6178206527
:1018A0000041206D617820650041206D6178207ACB
:1018B0000041206D6178207A0041206D61782079A7
:1018C0000041206D617820790041206D6178207899
:1018D0000041206D61782078005654726176206D49
:1018E000696E005654726176206D696E0056206DE7
:1018F000696E0056206D696E0056206D6178206516
:101900000056206D617820650056206D6178207A40
:101910000056206D6178207A0056206D617820791C
:101920000056206D617820790056206D617820780E
:101930000056206D617820780056206520206A6569
:10194000726B0056206520206A65726B0056207A03
:1019500020206A65726B0056207A20206A65726BBF
:101960000056207879206A65726B005620787920BD
:101970006A65726B004100410045696E7374656C65
:101980006C756E67656E00566F7277E1726D2E2012
:101990004142532045696E2E00566F7277E1726D99
:1019A0002E20504C412045696E2E00504944204362
:1019B00000504944204300504944204400504944C9
:1019C00020440050494420490050494420490050D7
:1019D0004944205000504944205000022046616B89
:1019E000746F7200022046616B746F720002204DAA
:1019F00061780002204D61780002204D696E00027E
:101A0000204D696E004175730045696E0041757324
:101A10000045696E004175746F54656D70004CF53A
:101A2000667465726765736368772E004CF566743B
:101A300065726765736368772E004265747400424F
:101A40006574740044F5736520320044F5736520B5
:101A5000320044F573650044F573650045696E73A3
:101A600074656C6C756E67656E004550524F4D2005
:101A700073706569636865726E00426574740042D4
:101A80006574740044F573650044F57365004CF5A6
:101A9000667465726765736368772E004CF56674CB
:101AA00065726765736368772E0054656D70657243
:101AB00061747572004550524F4D207370656963B3
:101AC0006865726E00426574740042657474004407
:101AD000F573650044F57365004CF56674657267CF
:101AE00065736368772E004CF5667465726765737D
:101AF0006368772E0054656D70657261747572004D
:101B00004265776567656E0041626BF5686C656E6E
:101B100000566F7277E1726D656E20414253005638
:101B20006F7277E1726D656E20504C4100536574A1
:101B30007A6520486F6D65206869657200473238A4
:101B400000486F6D65004D3834004D6F746F7265DD
:101B50006E204175730048617570746D656EF50097
:101B600020302E31206D6D0020312E30206D6D0023
:101B700031302E30206D6D00566F7262657265696E
:101B800074756E670045005A005900580042657729
:101B90006567656E004578747275646572005A00F9
:101BA00059005800566F72772E20414253204265EB
:101BB000747400566F72772E2041425320416C6C32
:101BC0006500566F7277E1726D656E204142532059
:101BD0003200566F7277E1726D656E20414253207C
:101BE0003100566F72626572656974756E67005672
:101BF0006F72772E20504C41204265747400566FEE
:101C000072772E20504C4120416C6C6500566F72EB
:101C100077E1726D656E20504C41203200566F7234
:101C200077E1726D656E20504C41203100566F7225
:101C3000626572656974756E67004D3630300046B6
:101C4000696C616D656E74207765636873656C6E31
:101C500000466C757373203100466C7573732031C8
:101C600000466C757373203000466C7573732030BA
:101C700000466C75737300466C757373004CF566A3
:101C80007465726765736368772E004CF5667465DA
:101C9000726765736368772E0042657474004265ED
:101CA00074740044F5736520320044F57365203286
:101CB0000044F573650044F5736500476573636818
:101CC000772E004765736368772E004861757074DE
:101CD0006D656EF50053444B6172746520656E74DA
:101CE0006665726E742E0053444B61727465206594
:101CF000726B616E6E742E004D333030205336356A
:101D00003920503230300A4D333030205336393894
:101D100020503230300000002100240027002A002B
:101D20002D003000330001010000040107010A0109
:101D300000002200250028002B002E003100340076
:101D400002010000050108010B0100002000230032
:101D5000260029002C002F003200000100000301A2
:101D6000060109010505050507050808080802021E
:101D700002020A0A08080404040401010101010125
:101D800001010303030303030303040707070C0C08
:101D90000C0C0C0C0C0C02020202060606060606CF
:101DA00006060B0B0B0B0B0B0B0B01021020200874
:101DB00008102040102040800201020108040201A6
:101DC0000102040810204080804020100804020115
:101DD000800402018040201008040201080402016E
:101DE00001020408102040800102040810204080F5
:101DF0000000090A02080B0C0D070603040100008D
:101E000000000000000000000000000000000000D2
:101E100000000000000000000000000011100F0092
:101E200000000000000000000000000000000000B2
:101E300000000000000002494E46494E4954594EE8
:101E4000414ECDCCCC3D0AD7233C17B7D13877CC07
:101E50002B329595E6241FB14F0A00002041000067
:101E6000C84200401C4620BCBE4CCA1B0E5AAEC520
:101E70009D74C42DE13101D26BDFDC3111241FBE12
:101E8000CFEFD1E2DEBFCDBF00E00CBF16E0A0E097
:101E9000B2E0E0ECFFED01E00BBF02C007900D9255
:101EA000A830B107D9F71BBE14E1A8E0B6E001C025
:101EB0001D92AA3CB107E1F71EE1CAE7DEE104C0CA
:101EC0002297FE010E9486EFC237D107C9F70E9410
:101ED00082E60C94D4EF0C940000A0E0B0E0E3E7BD
:101EE000FFE00C94A3EFEC015B016115710519F0A3
:101EF000FB0191838083F9908F2D90E00E948AEFFF
:101F0000892BC9F7FDE2FF1621F4F990EE24E39442
:101F100005C02BE2F21609F4F990EE248E0101506F
:101F20001040C80167E37EE143E050E062D2892BB4
:101F3000F9F48E010E5F1F4FC8016AE37EE145E0B0
:101F400050E057D2892B19F48E01095F1F4FA1145D
:101F5000B10419F0F50111830083E0FC04C070E0C6
:101F600090E080E813C070E090E080E86FEF07C178
:101F7000C8016FE37EE143E050E03BD2892B69F476
:101F8000A114B10429F470E090E080EC6FE7F7C091
:101F90002296F501D183C083F6CF8824992440E0AE
:101FA00050E060E070E0EF2DE053EA30A0F5F2E0A1
:101FB000EF2A8E2D90E09C0128703070E2FE06C062
:101FC000232B79F50894811C911C2BC0232B19F02D
:101FD000089481089108DB01CA0112E0880F991F5B
:101FE000AA1FBB1F1A95D1F7480F591F6A1F7B1FE5
:101FF000440F551F661F771F4E0F511D611D711D28
:10200000483929E9520729E9620729E1720748F0AE
:1020100084E0E82A06C0EE3F31F4E3FC39C098E0E2
:10202000E92AF990C0CFE53311F0E53189F529911E
:102030002D3219F4E0E1EE2A05C02B3219F081E0CF
:1020400090E003C0299182E090E0E22FE053EA3073
:1020500018F0C81BD90B1CC020E030E0FCE0203891
:102060003F075CF4C901880F991F880F991F280F3B
:10207000391F220F331F2E0F311DE991E053EA3033
:1020800068F3E4FE03C0309521953F4F820E931E06
:10209000CE2CDD24E1FE07C0A114B10421F021976C
:1020A000F501D183C083CB01BA010E94EFEB7B0124
:1020B0008C01F3E0CF22DD2423E0C216D10421F409
:1020C00017FB109517F9109557016801C801B70162
:1020D00020E030E040E050E00E944FEB882309F41C
:1020E0004AC097FE0DC026E5E22E2EE1F22E909416
:1020F000819491089394C0E2D0E000E010E012C017
:102100009EE6E92E9EE1F92EF6CFF7012591359155
:1021100045915491C601B5010E942FEE5B016C01FF
:102120008C1A9D0A8C169D0684F7D595C7950F5F6E
:102130001F4F0630110529F08CEF9FEFE80EF91EB6
:10214000F1CFC501D6017C018D018C2D880F8D2D1D
:10215000881F8F3F51F0C601B50120E030E040E01C
:1021600050E00E944FEB882331F482E290E090939C
:10217000C9148093C8147E2D9F2D802F612F272F87
:10218000392F482F562FB901CA01CDB7DEB7ECE081
:102190000C94BFEF2F923F925F926F927F928F923B
:1021A0009F92AF92BF92CF92DF92EF92FF920F93E6
:1021B0001F93CF93DF938C011B01EA016115710519
:1021C00019F0FB0191838083209749F0CE0102979B
:1021D000839728F020E030E040E050E0F6C0F801BE
:1021E000A1908F018A2D90E00E948AEF892BB9F788
:1021F000FDE2AF1631F4F801A1908F0155245394FC
:1022000007C0FBE2AF1619F4F801A1908F01552425
:10221000209719F0C031D105C1F4F0E3AF1679F47D
:10222000F8018081883711F0883549F4F801A180E0
:102230000E5F1F4FF2E05F2AC0E1D0E006C020979A
:1022400021F480E3A816E9F427C0C830D10531F1A4
:10225000C930D10524F4C230D10531F50CC0CA30E3
:10226000D10589F0C031D105F9F4C12CD12CE12C74
:10227000B8E0FB2E28C0C12CD12CE12CA0E4FA2E12
:1022800022C0CAE0D0E0FCECCF2EFCECDF2EFCEC50
:10229000EF2EFCE0FF2E17C0C8E0D0E0C12CD12CFF
:1022A000E12CE0E1FE2E0FC09E01442737FD409552
:1022B000542F60E070E080E090E80E9447EFC90191
:1022C000DA016C017D0120E030E040E050E060E0A8
:1022D0003E01882477FC8094982C70EDB72EBA0CC0
:1022E000E9E0EB1570F48A2D81548A3118F499ECE9
:1022F000B92E06C08A2D81568A3150F589EAB82E4A
:10230000BA0C8B2D90E08C179D0714F56F3FE1F010
:10231000C216D306E406F506B0F0CA01B901A4015D
:1023200093010E9401EF9B01AC012B0D311D411D5A
:10233000511D2130F0E03F07F0E04F07F0E85F0764
:1023400010F461E001C06FEFF801A1908F01C5CFDB
:102350002114310481F0662331F001501040F10165
:102360001183008308C051FE1AC002501040F101D1
:102370001183008314C067FF12C050FC05C02FEF0B
:102380003FEF4FEF5FE704C020E030E040E050E86F
:1023900082E290E09093C9148093C81416C050FE56
:1023A00008C050954095309521953F4F4F4F5F4F56
:1023B0000CC057FF0AC082E290E09093C91480934A
:1023C000C8142FEF3FEF4FEF5FE7B901CA01DF916C
:1023D000CF911F910F91FF90EF90DF90CF90BF9022
:1023E000AF909F908F907F906F905F903F902F90D5
:1023F0000895FB01DC014150504088F08D918134FB
:102400001CF08B350CF4805E659161341CF06B35EB
:102410000CF4605E861B611171F3990B0895881BA3
:10242000FCCFFB01DC014150504048F005900D927B
:102430000020C9F701C01D9241505040E0F70895B7
:10244000FB0155915523A9F0BF01DC014D914517C2
:102450004111E1F759F4CD010590002049F04D916B
:1024600040154111C9F3FB014111EFCF81E090E02C
:1024700001970895FB01DC0104C08D910190801942
:1024800021F441505040C8F7881B990B0895FB0177
:10249000DC0102C001900D9241505040D8F70895E0
:1024A000FB01DC018D9181341CF08B350CF4805ED6
:1024B000619161341CF06B350CF4605E861B611118
:1024C00089F3990B0895FB01DC010D900020E9F7D9
:1024D000119701900D920020E1F70895FC01819180
:1024E000861721F08823D9F7992708953197CF01CE
:1024F0000895FB01DC018D91019080190110D9F341
:10250000990B0895FB01DC0101900D920020E1F789
:102510000895FB01DC014150504030F08D91019055
:10252000801919F40020B9F7881B990B0895FB0155
:10253000DC014150504048F001900D920020C9F755
:1025400001C01D9241505040E0F70895AEE0B0E068
:10255000ECEAF2E10C94ABEF0E891F898EE08C83DC
:102560001A8309838FEF9FE79E838D839E01265EEA
:102570003F4FCE010196688D798DA9010AD02F8138
:102580003885020F131FF80110822E96E4E00C9498
:10259000C7EFABE0B0E0EFECF2E10C949DEF3C0153
:1025A0002B015A01FC0117821682838181FD03C031
:1025B0006FEF7FEFB9C19AE0892E1E010894211CAC
:1025C000311CF3012381F20123FD859123FF8191C9
:1025D0002F01882309F4A5C1853239F423FD8591A3
:1025E00023FF81912F01853221F490E0B301B7D10F
:1025F000E8CF982FFF24EE249924FFE1FF15D0F0B7
:102600009B3269F09C3228F4903259F0933291F465
:102610000EC09D3249F0903369F441E024C052E08D
:10262000F52A84E0F82A28C098E0F92A25C0E0E1DC
:10263000FE2A22C0F7FC29C0892F80538A3070F40B
:10264000F6FE05C0989C902C1124980E15C0E89CAD
:10265000E02C1124E80EF0E2FF2A0EC09E3229F48D
:10266000F6FC5FC140E4F42A07C09C3619F450E838
:10267000F52A02C0983649F4F20123FD959123FF13
:1026800091912F01992309F0B8CF892F8554833078
:1026900018F08052833038F444E050E0A40EB51EA8
:1026A0005FE359830FC0933631F0933779F0933558
:1026B00009F052C01FC0F5018081898342E050E0DB
:1026C000A40EB51E610101E010E011C0F501C0804B
:1026D000D180F6FC03C06FEF7FEF02C0692D70E080
:1026E00042E050E0A40EB51EC6012ED18C015FE77A
:1026F000F52213C0F501C080D180F6FC03C06FEF56
:102700007FEF02C0692D70E042E050E0A40EB51EDC
:10271000C6010FD18C0150E8F52AF3FE06C018C09F
:1027200080E290E0B3011BD1EA948E2D90E008176F
:102730001907B0F30DC0F601F7FC8591F7FE819102
:102740006F0190E0B3010BD1E110EA940150104009
:102750000115110581F7E2C0943611F0993661F543
:10276000F7FE08C0F501208131814281538184E068
:1027700090E00AC0F501808191819C01442737FDDA
:102780004095542F82E090E0A80EB91E9FE6F922F2
:1027900057FF09C050954095309521953F4F4F4FB9
:1027A0005F4FE0E8FE2ACA01B901A1012AE030E04A
:1027B00002D1D82ED2183FC0953729F41F2D1F7E85
:1027C0002AE030E01DC01F2D197F9F3661F0903741
:1027D00020F4983509F0A5C00FC0903739F098372C
:1027E00009F09FC004C028E030E00AC0106114FD69
:1027F000146020E130E004C014FD166020E132E0F6
:1028000017FF08C0F501608171818281938144E0E6
:1028100050E008C0F50180819181BC0180E090E02A
:1028200042E050E0A40EB51EA101C5D0D82ED218AA
:102830008FE7F82EF122F6FE0BC05EEFF522D914D9
:1028400038F4F4FE07C0F2FC05C08FEEF82202C097
:102850001D2D01C0192DF4FE0DC0FE01ED0DF11D61
:102860008081803319F499EEF92208C01F5FF2FECF
:1028700005C003C08F2D867809F01F5F0F2DF3FC74
:1028800013C0F0FE0EC01E1510F09D2C0AC09D2C2A
:102890009E0C911A1E2D05C080E290E0B3015FD01E
:1028A0001F5F1E15C8F304C01E1510F4E11A01C005
:1028B000EE2404FF0EC080E390E0B30150D002FF8D
:1028C0001BC001FD03C088E790E00EC088E590E0E2
:1028D0000BC0802F867881F001FF02C08BE201C01F
:1028E00080E2F7FC8DE290E0B30139D005C080E3CF
:1028F00090E0B30134D09A94D914C8F3DA94F1017A
:10290000ED0DF11D808190E0B30129D0DD20B1F7FC
:1029100005C080E290E0B30122D0EA94EE20C9F72E
:1029200050CEF30166817781CB012B96E2E10C94C6
:10293000B9EFFC010590615070400110D8F7809507
:1029400090958E0F9F1F0895FC016150704001907B
:102950000110D8F7809590958E0F9F1F08950F93C3
:102960001F93CF93DF938C01EB018B8181FF1BC001
:1029700082FF0DC02E813F818C819D8128173907F0
:1029800064F4E881F9810193F983E88306C0E8855E
:10299000F985802F1995892B31F48E819F810196BD
:1029A0009F838E8302C00FEF1FEFC801DF91CF918D
:1029B0001F910F910895FA01AA27283051F1203173
:1029C00081F1E8946F936E7F6E5F7F4F8F4F9F4FC3
:1029D000AF4FB1E03ED0B4E03CD0670F781F891F05
:1029E0009A1FA11D680F791F8A1F911DA11D6A0FD3
:1029F000711D811D911DA11D20D009F468943F9186
:102A00002AE0269F11243019305D3193DEF6CF0184
:102A10000895462F4770405D4193B3E00FD0C9F74A
:102A2000F6CF462F4F70405D4A3318F0495D31FDB7
:102A30004052419302D0A9F7EACFB4E0A69597950A
:102A4000879577956795BA95C9F7009761057105E0
:102A500008959B01AC010A2E06945795479537952A
:102A60002795BA95C9F7620F731F841F951FA01D84
:102A70000895FC01128213820895FC01838188234A
:102A800011F081E082830895FC018281811112821C
:102A90000895CF93DF93DC01FC01EB55FE4F80815D
:102AA00091810097C9F1019791838083ED01CC5A00
:102AB000DF4FFD01ED58FF4F8BE1019009928150EE
:102AC000E1F7FD01EE5AFF4FAF58BF4F8D919C913A
:102AD0001197A157B04091838083FD01ED58FF4FBE
:102AE00020E030E0AD014B555E4F10C02F5F3F4FEF
:102AF000EF01DF015F968BE10D9009928150E1F7C4
:102B0000858D968D329791838083B196DA018D9170
:102B10009C912817390750F3DF91CF910895FC015C
:102B200089E895E0918380838781882321F0CF0114
:102B300004960C94C2720895CF92DF92EF92FF92A6
:102B40000F931F93DF93CF93CDB7DEB76F970FB679
:102B5000F894DEBF0FBECDBF8C016B01095A1F4F29
:102B6000D8018C9107551040882321F42FE2E22EE2
:102B7000F12C03C090E5E92EF12CE00EF11E89E85E
:102B800095E09A8389831C821B8218861D82B70177
:102B90006C5F7F4FCE010596A60121E00E94AE79C1
:102BA000882391F5E6ECF5E0949108C08091C0008F
:102BB00085FFFCCF9093C600319694919923B1F78D
:102BC000EBE3F1E0949108C08091C00085FFFCCF59
:102BD0009093C600319694919923B1F709C08091E2
:102BE000C00085FFFCCF0894C11CD11C9093C60087
:102BF000F6019081992399F78091C00085FFFCCF61
:102C00008AE08093C6005AC0F801EB55FE4F208140
:102C100031812A30310508F040C02F5F3F4F3183AA
:102C2000208321503040F90185E0EE0FFF1F8A9587
:102C3000E1F7E21BF30BED58FF4FE00FF11F13C05C
:102C4000AF01415E5F4FBF018BE1DB010D90BD0124
:102C5000DA010D92AD018150C1F7929182913296C5
:102C6000968F858F7F9721503040BFEF2E3F3B07D7
:102C700039F7D801AD58BF4FF70134968BE1019079
:102C80000D928150E1F70F581F4FF7018281938118
:102C9000D8018D939C9301571040D801AC5ABF4F77
:102CA000FE0135968BE101900D928150E1F70E5AAD
:102CB0001F4F8B819C81F80191838083CE01019607
:102CC0002EDF6F960FB6F894DEBF0FBECDBFCF914B
:102CD000DF911F910F91FF90EF90DF90CF900895BB
:102CE000EF92FF920F931F938C013EECE32E31E0A5
:102CF000F32EE80EF91EC7010E947372C7010E94ED
:102D0000C272F801118210821F910F91FF90EF9013
:102D10000895CF92DF92EF92FF920F931F93CF937C
:102D2000DF937C016B01DB010D900020E9F78D0141
:102D300001501040061B170BEEECF1E0EE0EFF1EEB
:102D4000D7011C92E2E3FEEFEE0EFF1ECB016EE414
:102D500070E0C4DBEC01009731F4F8013197EC0D21
:102D6000FD1D86010CC060E270E0B8DB8C010F5FD6
:102D70001F4FCE016AE270E0B1DBFC0131978DE0BC
:102D800081838AE082831382C70186539E4FB801F4
:102D90000E94BF7A8EEC91E0E80EF91ED7018C916B
:102DA000882319F1EFEBF5E0949108C08091C00001
:102DB00085FFFCCF9093C600319694919923B1F78B
:102DC000E5E6F1E0949108C08091C00085FFFCCF5A
:102DD0009093C600319694919923B1F78091C000E9
:102DE00085FFFCCF8AE08093C600DF91CF911F91D1
:102DF0000F91FF90EF90DF90CF900895CF93DF93E6
:102E0000EC018B81882309F43BC0EDE8F1E094915B
:102E100008C08091C00085FFFCCF9093C60031961A
:102E200094919923B1F7CD57DD4F488159816A813B
:102E30007B81C358D2408CE896E02AE030E00E94C3
:102E40005D2EEBE8F1E0949108C08091C00085FF11
:102E5000FCCF9093C600319694919923B1F7C55851
:102E6000DD4F488159816A817B818CE896E02AE0B8
:102E700030E00E945D2E8091C00085FFFCCF12C023
:102E8000EBE7F1E0949108C08091C00085FFFCCF92
:102E90009093C600319694919923B1F78091C00028
:102EA00085FFFCCF8AE08093C600DF91CF91089523
:102EB0002F923F924F925F926F927F928F929F924A
:102EC000AF92BF92CF92DF92EF92FF920F931F9338
:102ED000DF93CF93CDB7DEB7AC970FB6F894DEBFD4
:102EE0000FBECDBF5C014B01FC018381882309F437
:102EF0003BC1C50182539E4F0E94C272F5011282EE
:102F00001A8A1D8A198A188A89E895E09F878E8710
:102F10005EE4C52ED12CCA0CDB1C2FE230E0A20EE1
:102F2000B31EF601B182A08221ED3FEFA20EB31EC7
:102F3000F40180818F3209F08DC0C4016FE270E02E
:102F4000CDDA7C010894E11CF11C3E010894611C5F
:102F5000711C260142E1242E312C2C0E3D1E75C021
:102F6000C7016FE270E0BADA6C01009709F480C023
:102F7000E816F90608F07CC08C010E191F09C30180
:102F8000B701A801D4DA060D171DF8011082F3016C
:102F900007C08091C00085FFFCCF31969093C6009A
:102FA00090819923B1F78091C00085FFFCCFFAE0B2
:102FB000F093C600F201608171816115710519F409
:102FC00060E070E002C06C5F7F4FC101A30121E0AF
:102FD0000E94AE79882371F5E9ECF1E0949108C084
:102FE0008091C00085FFFCCF9093C60031969491EC
:102FF0009923B1F7FE01319607C08091C00085FF8B
:10300000FCCF31969093C60090819923B1F7E7ECFD
:10301000F1E0949108C08091C00085FFFCCF9093AF
:10302000C600319694919923B1F78091C00085FF35
:10303000FCCF94C02EE030E02C0F3D1FF201318315
:10304000208376010894E11CF11CE114F10409F0DD
:1030500087CF0BC080E590E0A80EB91EF601B182C3
:10306000A08220EB3FEFA20EB31ED82C092D02C088
:10307000DE2C0F2D8EE490E0A80EB91EF5018081A4
:10308000918122EB3FEFA20EB31E009719F480E06E
:1030900090E001C004966D2D702F0E947A7A8823EB
:1030A00071F1E9EBF1E0949108C08091C00085FFD7
:1030B000FCCF9093C600319694919923B1F78D2D52
:1030C000902F9C01F90107C08091C00085FFFCCFC3
:1030D00031969093C60090819923B1F78091C000FA
:1030E00085FFFCCF8AE08093C60083E892E0A80EBB
:1030F000B91EF501108211821282138232C0E1EAF8
:10310000F1E0949108C08091C00085FFFCCF9093BE
:10311000C600319694919923B1F78D2D902F9C0183
:10312000F90107C08091C00085FFFCCF31969093D4
:10313000C60090819923B1F7EFE9F1E0949108C0BE
:103140008091C00085FFFCCF9093C600319694918A
:103150009923B1F78091C00085FFFCCF8AE080936E
:10316000C600CE010E96DBDCAC960FB6F894DEBF3F
:103170000FBECDBFCF91DF911F910F91FF90EF90C8
:10318000DF90CF90BF90AF909F908F907F906F9087
:103190005F904F903F902F900895BF92CF92DF9213
:1031A000EF92FF920F931F93CF93DF938C01EB016C
:1031B0008FE28993EE24E394FF2475EAC72E71E031
:1031C000D72EC00ED11E6FE1B62E14C0FB9CC001DD
:1031D00011248D589F4F800F911FBE010E94D27203
:1031E00002C02196E3948881882319F08CE88E151B
:1031F000C0F7F3942F2D30E0F601808191812817DC
:10320000390720F3E7FC07C0C80182539E4FBE0177
:103210000E94D27201C01882DF91CF911F910F914D
:10322000FF90EF90DF90CF90BF900895EF92FF92C4
:103230000F931F93CF93DF938C01FC01138286A918
:10324000882321F0C801C3960E94C272E7EAEE2EDD
:10325000E1E0FE2EE00EF11EC70160E045E30E94B2
:103260006F70882309F5E6ECF5E0949108C0809131
:10327000C00085FFFCCF9093C600319694919923AE
:10328000B1F7E2E1F3E0949108C08091C00085FFBE
:10329000FCCF9093C600319694919923B1F7809119
:1032A000C00085FFFCCF7DC0E801C455DE4FCE01D4
:1032B000B70141E00E94507B882341F5CE01B70160
:1032C00040E00E94507B882309F5EFEBF5E09491F4
:1032D00008C08091C00085FFFCCF9093C600319656
:1032E00094919923B1F7EFEFF2E0949108C08091A7
:1032F000C00085FFFCCF9093C6003196949199232E
:10330000B1F78091C00085FFFCCF4BC0C801C396C8
:10331000BE010E94B475882309F5EFEBF5E09491A6
:1033200008C08091C00085FFFCCF9093C600319605
:1033300094919923B1F7EFEEF2E0949108C0809157
:10334000C00085FFFCCF9093C600319694919923DD
:10335000B1F78091C00085FFFCCF23C081E0F80168
:103360008383E6ECF5E0949108C08091C00085FF6E
:10337000FCCF9093C600319694919923B1F7E4EE77
:10338000F2E0949108C08091C00085FFFCCF90933B
:10339000C600319694919923B1F78091C00085FFC2
:1033A000FCCF8AE08093C600D801AC5ABF4FF80129
:1033B000F3968BE101900D928150E1F7F80181A91C
:1033C00092A90E5A1F4FF801918380830255104035
:1033D000C8018F96025B1F4FF80191838083DF91B4
:1033E000CF911F910F91FF90EF9008952F923F92F0
:1033F0004F925F926F927F929F92AF92BF92CF92C5
:10340000DF92EF92FF920F931F93DF93CF93CDB78D
:10341000DEB7CC55D0400FB6F894DEBF0FBECDBF9F
:103420006C01662309F0E3C027E832E0C20ED31E28
:10343000D6018C91E9E7FDEFCE0EDF1E882309F45B
:10344000E7C02FE732E0C20ED31ED601ED90FD900B
:103450000D911C91E1E8FDEFCE0EDF1E0E94BDE351
:10346000E616F7060807190708F4D2C0C0C0C6015F
:10347000DDDED60113968C91882309F4C9C000D0F3
:1034800000D0EDB7FEB731967E010894E11CF11C27
:10349000ADB7BEB71296FC92EE9211978CE591E013
:1034A00093838283D6019D968D919C919E9795835F
:1034B00084834CD88701EDB7FEB736960FB6F894E3
:1034C000FEBF0FBEEDBF57010AC0D8018C919927EE
:1034D00087FD90950E9492EFF80181938F01F5018D
:1034E00001900020E9F73197EA19FB09802F8E1926
:1034F0008E175CF313E3A12EB12CAC0CBD1CC501DF
:1035000040E050E060E070E00E94A9719924BDE3C2
:10351000EB2EF12CEC0EFD1E2E010894411C511CCB
:10352000AFE16A2E712C6C0E7D1EF5E52F2EF1E0B9
:103530003F2E42C0D8018C9190E00E9492EFF8019A
:1035400081938F01D7010D900020E9F71197AE19F3
:10355000BF09802F8E198A176CF327968FAD279796
:103560008E3751F1C701B20145E050E00E94891247
:10357000009711F500D000D0EDB7FEB73196ADB78A
:10358000BEB712967C926E92119733822282558238
:1035900044820E94A612EDB7FEB736960FB6F89495
:1035A000FEBF0FBEEDBFC3010E94134181E591E054
:1035B0000E94605699249394C501B70140E050E001
:1035C0000E94D374181614F48701BCCF992041F4DB
:1035D0008FEF9FEFD6019E969C938E939D9718C078
:1035E000F60185A596A5019696A785A711C027E89F
:1035F00032E0C20ED31ED6011C92E9E7FDEFCE0EDB
:10360000DF1ED60113968C91882309F430CF37CF73
:10361000C45ADF4F0FB6F894DEBF0FBECDBFCF91B7
:10362000DF911F910F91FF90EF90DF90CF90BF90AF
:10363000AF909F907F906F905F904F903F902F90B2
:1036400008952F923F924F925F926F927F928F9246
:103650009F92AF92BF92CF92DF92EF92FF920F9321
:103660001F93DF93CF93CDB7DEB7CF58D0400FB6BF
:10367000F894DEBF0FBECDBF8C012B016A01C75786
:10368000DF4F39832883C958D04084E090E0C80ECA
:10369000D91EF8017296C957DF4FF983E883C758DE
:1036A000D04045E0642E712C600E711ECA57DF4F6A
:1036B0001882C658D04036E6E32EF12CEC0EFD1EE3
:1036C000C7010B96C557DF4F99838883CB58D040ED
:1036D00028E8822E22E0922E800E911E9AE8A92ED2
:1036E00092E0B92EA00EB11E87E4282E312C2C0EAC
:1036F0003D1EF1013496C357DF4FF983E883CD585F
:10370000D040E6ECF5E08491C157DF4F8883CF5875
:10371000D0404CC1F7018385282F30E0A9014871C2
:1037200050704031510509F04FC1F4018081918101
:103730008130910509F448C1029709F445C1F701A8
:10374000DE0111969081903239F08E2F8E198830DB
:1037500011F48EE28D939D933196C557DF4F88818A
:103760009981CB58D040E817F90761F71C921E8663
:10377000F2018081882331F4CE010E9660E072E080
:103780000E946312CE010E96B2010E946312CE0116
:103790000E96BE016F5F7F4F0E946312CE010E96A0
:1037A00060E072E00E9463121CA61FA61BA61AA668
:1037B00089E895E099A788A7CE018C96B601AE015D
:1037C0004F5F5F4F21E00E94AE79882309F03FC030
:1037D000F40180819181892BD1F5C157DF4F988108
:1037E000CF58D040E6ECF5E008C08091C00085FFDE
:1037F000FCCF9093C600319694919923B1F7E2E003
:10380000F2E007C08091C00085FFFCCF3196909315
:10381000C60090819923B1F78091C00085FFFCCF4D
:10382000FAE0F093C600FE01319607C08091C00017
:1038300085FFFCCF31969093C60090819923B1F714
:103840008091C00085FFFCCF8AE08093C600C357FB
:10385000DF4FA881B981CD58D040FE01BC968BE1E5
:1038600001900D928150E1F78AA59BA5F101938308
:10387000828389E895E091838083C801BE01625FFD
:103880007F4FA10120E030E0DCDEC10148D9CE014C
:10389000889645D98BC08E3209F488C0F801828998
:1038A0008E3209F483C023FD81C080E04031510590
:1038B00009F481E0F8018483882349F4F7018085C5
:1038C000873409F073C081858E3709F46FC0D30146
:1038D000F7018081803241F08E2F8E19883011F4EB
:1038E0008EE28D9380818D933196C557DF4F88810D
:1038F0009981CB58D040E817F90759F71C92F40189
:1039000080819181009701F5F20107C08091C0008C
:1039100085FFFCCF31969093C60090819923B1F733
:10392000F30107C08091C00085FFFCCF31969093D2
:10393000C60090819923B1F78091C00085FFFCCF2C
:10394000FAE0F093C60032C08130910539F4F501F8
:103950008081918101969183808328C0029731F5FF
:10396000C757DF4F88819981C958D040009731F0FF
:10397000B3010E945012892B71F42BC0CA57DF4F3C
:103980009881C658D040292F30E0F501808191817F
:1039900028173907F1F0CA57DF4FF881C658D040D1
:1039A000FF5FCA57DF4FF883C658D040C601B70142
:1039B000C957DF4F48815981C758D0400E94D374FE
:1039C00018160CF4A7CE05C0F7018081882309F0F2
:1039D00062CFC157DF4F0FB6F894DEBF0FBECDBF29
:1039E000CF91DF911F910F91FF90EF90DF90CF90DB
:1039F000BF90AF909F908F907F906F905F904F900F
:103A00003F902F900895EF92FF920F931F93DF93B3
:103A1000CF93CDB7DEB76F970FB6F894DEBF0FBE6A
:103A2000CDBF7C018C01025B1F4F805B9F4FF80173
:103A30009183808328E832E0E20EF31E21E030E03B
:103A4000F701219331937F011182108226E73DEF28
:103A5000E20EF31E049640E050E060E070E00E9449
:103A6000A971F80120813181DE011596F9013496A2
:103A70008BE101900D928150E1F7F90182819381F0
:103A80009C838B8389E895E09A838983C70165E1EC
:103A900072E08E010F5F1F4FA80120E030E0D1DD02
:103AA000C8013DD8F701E657FD4F808191816F969F
:103AB0000FB6F894DEBF0FBECDBFCF91DF911F913F
:103AC0000F91FF90EF900895CF92DF92EF92FF92C7
:103AD0000F931F93DF93CF93CDB7DEB76F970FB6DA
:103AE000F894DEBF0FBECDBF7C016A018C01025B82
:103AF0001F4F805B9F4FF8019183808328E832E05D
:103B0000E20EF31E22E030E0F701219331937F01B2
:103B10007183608326E73DEFE20EF31E049640E0DA
:103B200050E060E070E00E94A971F80120813181CD
:103B3000DE011596F90134968BE101900D928150CA
:103B4000E1F7F901828193819C838B8389E895E079
:103B50009A838983C70165E172E08E010F5F1F4F71
:103B6000A80196016EDDC8010E948F156F960FB6F1
:103B7000F894DEBF0FBECDBFCF91DF911F910F91A3
:103B8000FF90EF90DF90CF9008952F923F924F9249
:103B90005F926F927F928F929F92AF92BF92CF92DD
:103BA000DF92EF92FF920F931F93DF93CF93CDB7E6
:103BB000DEB7AD970FB6F894DEBF0FBECDBF7C0168
:103BC0003B014DA7DC0113968C91882309F447C370
:103BD000E1EDF1E0EE0EFF1ED7018C91EFE2FEEF7A
:103BE000EE0EFF1E882309F418C1222309F0E0C05D
:103BF00029EE31E0E20EF31ED7018C91E7E1FEEFF2
:103C0000EE0EFF1E882371F1EFEBF5E0949108C0F2
:103C10008091C00085FFFCCF9093C60031969491AF
:103C20009923B1F7E1EAF2E0949108C08091C000D5
:103C300085FFFCCF9093C600319694919923B1F7FC
:103C40008CE896E061E070E04AE050E00E94AC2E23
:103C50008091C00085FFFCCF8AE08093C6000E945F
:103C60003932FDC2E6ECF5E0949108C08091C000C5
:103C700085FFFCCF9093C600319694919923B1F7BC
:103C8000E8E8F2E0949108C08091C00085FFFCCF85
:103C90009093C600319694919923B1F7F30107C030
:103CA0008091C00085FFFCCF31969093C600908133
:103CB0009923B1F7EDE7F2E0949108C08091C0003C
:103CC00085FFFCCF9093C600319694919923B1F76C
:103CD000C7012EEE31E0E20EF31EB7015EDA4BEFC4
:103CE0005FEFE40EF51ED7019C91E7E1FEEFEE0ECB
:103CF000FF1E8DE8989FF0011124E251FE4FEE0D5A
:103D0000FF1D07C08091C00085FFFCCF31969093C6
:103D1000C60090819923B1F7E7E7F2E0949108C0DB
:103D20008091C00085FFFCCF9093C600319694919E
:103D30009923B1F723E832E0E20EF31ED7014D914B
:103D40005D916D917C91EDE7FDEFEE0EFF1E8CE82D
:103D500096E02AE030E00E945D2E8091C00085FF51
:103D6000FCCF8AE08093C600A70147515E4FDA017D
:103D70002C91E22FF0E0EE0FFF1FEE0FFF1FEE0D74
:103D8000FF1DE651FE4F83E892E0E80EF91ED701D1
:103D9000AD90BD90CD90DC908DE79DEFE80EF91EC3
:103DA000A082B182C282D3822F5FDA012C932FC00E
:103DB000E6ECF5E0949108C08091C00085FFFCCF4F
:103DC0009093C600319694919923B1F7E6E6F2E01C
:103DD000949108C08091C00085FFFCCF9093C600ED
:103DE000319694919923B1F7F30107C08091C000F7
:103DF00085FFFCCF31969093C60090819923B1F74F
:103E00008091C00085FFFCCF8AE08093C600C70187
:103E100082539E4F0E94C27239C0E9EEF1E0EE0E6D
:103E2000FF1ED7011C92E7E1FEEFEE0EFF1EE6EC4F
:103E3000F5E0949108C08091C00085FFFCCF90937D
:103E4000C600319694919923B1F7E5E5F2E094919B
:103E500008C08091C00085FFFCCF9093C6003196CA
:103E600094919923B1F7F30107C08091C00085FFB9
:103E7000FCCF31969093C60090819923B1F7809141
:103E8000C00085FFFCCF8AE08093C600D701129660
:103E90001C921A8A1D8A198A188A89E895E09F87D8
:103EA0008E87F701E25BFF4F2FE230E0E20EF31E58
:103EB000F182E08241ED5FEFE40EF51ED3018C91BB
:103EC0008F3209F08BC063010894C11CD11C4E01D4
:103ED0000894811C911C2F0152E1252E312C2C0EAF
:103EE0003D1E77C0C6016FE270E00E946E125C0159
:103EF000009709F47FC0C816D90608F07BC08C0172
:103F00000C191D09C401B601A8010E949712080DE1
:103F1000191DF8011082F40107C08091C00085FFCF
:103F2000FCCF31969093C60090819923B1F7809190
:103F3000C00085FFFCCFFAE0F093C600D2016D917E
:103F40007C916115710519F460E070E002C06C5F4E
:103F50007F4FC101A40121E00E94AE79882371F551
:103F6000E1E4F2E0949108C08091C00085FFFCCFAD
:103F70009093C600319694919923B1F7FE01319642
:103F800007C08091C00085FFFCCF31969093C6009A
:103F900090819923B1F7EFE3F2E0949108C080910A
:103FA000C00085FFFCCF9093C60031969491992371
:103FB000B1F78091C00085FFFCCF22C12EE030E038
:103FC0002C0F3D1FF2013183208365010894C11C31
:103FD000D11CC114D10409F085CF0AC040E550E0DE
:103FE000E40EF51EF182E08280EB9FEFE80EF91EF1
:103FF000830101C08601F701E25BFF4F9DA5992374
:1040000009F4BFC0608171816115710519F460E028
:1040100070E002C06C5F7F4FC70182539E4FA801C2
:1040200021E00E94AE79882309F47EC0AFEDB1E0B3
:10403000EA0EFB1EF70140815181628173812CE9F8
:1040400030E0E20EF31ED7014D935D936D937C93A8
:104050001397E5E8FDEFEE0EFF1EE1E3F2E0949129
:1040600008C08091C00085FFFCCF9093C6003196B8
:1040700094919923B1F7F80107C08091C00085FFA2
:10408000FCCF31969093C60090819923B1F7E9E275
:10409000F2E0949108C08091C00085FFFCCF90931E
:1040A000C600319694919923B1F78CE896E02AE006
:1040B00030E00E945D2E8091C00085FFFCCF8AE039
:1040C0008093C60023E832E0E20EF31ED7011D9272
:1040D0001D921D921C921397EDE7FDEFEE0EFF1E51
:1040E000EBE1F2E0949108C08091C00085FFFCCF25
:1040F0009093C600319694919923B1F78091C000B6
:1041000085FFFCCF8AE08093C600C70160E070E0C5
:10411000A801DADCD70152968C91882309F498C063
:1041200087010E5E1F4F94C0E7E0F2E0949108C053
:104130008091C00085FFFCCF9093C600319694918A
:104140009923B1F7F80107C08091C00085FFFCCF2B
:1041500031969093C60090819923B1F7E5E0F2E0A3
:10416000949108C08091C00085FFFCCF9093C60059
:10417000319694919923B1F78091C00085FFFCCFCF
:104180003FC0608171816115710519F460E070E0D4
:1041900002C06C5F7F4FC70182539E4FA80126E586
:1041A0000E94AE79882381F5E1EFF1E0949108C097
:1041B0008091C00085FFFCCF9093C600319694910A
:1041C0009923B1F7F80107C08091C00085FFFCCFAB
:1041D00031969093C60090819923B1F7EFEEF1E00C
:1041E000949108C08091C00085FFFCCF9093C600D9
:1041F000319694919923B1F78091C00085FFFCCF4F
:104200008AE08093C60027C081E0F7018083EDED4E
:10421000F1E0949108C08091C00085FFFCCF90939D
:10422000C600319694919923B1F7F30107C08091AC
:10423000C00085FFFCCF31969093C60090819923F2
:10424000B1F78091C00085FFFCCF8AE08093C60063
:10425000C8010E9428D2CE010E960E948F15AD96FD
:104260000FB6F894DEBF0FBECDBFCF91DF911F9187
:104270000F91FF90EF90DF90CF90BF90AF909F9005
:104280008F907F906F905F904F903F902F90089508
:10429000EF92FF920F931F93CF93DF93EC010E9455
:1042A00016828E0107511E4FD8018C91BEECEB2E69
:1042B000B1E0FB2EEC0EFD1E882399F1C7010E9490
:1042C000C272F8016081615060838DE8689FB0011F
:1042D000112462517E4F6C0F7D1FCE0141E021E021
:1042E00054DCD801EC91F0E0EE0FFF1FEE0FFF1F42
:1042F000EC0FFD1FE651FE4F4081518162817381B9
:10430000CD57DD4F488359836A837B83C358D2409E
:10431000C7010E94A9718B81882389F181E08A837A
:104320002EC00E94EF7FC7010E94C2721A828FE2E4
:1043300091E00E9460568091A20B882301F11092B7
:10434000A20B80915109C82FD0E0CC0FDD1FC751BF
:10435000DD4E68817981882777FD8095982F0E94AE
:10436000F1EB2091CA043091CB044091CC045091E0
:10437000CD040E945DED181614F419821882DF91A5
:10438000CF911F910F91FF90EF900895FC0181E074
:104390008183CF0140E021E0F8CBEF92FF920F93B1
:1043A0001F93DF93CF93CDB7DEB76F970FB6F89417
:1043B000DEBF0FBECDBF7C0188E892E0E80EF91E9B
:1043C000F7011182108288E79DEFE80EF91E870140
:1043D0000D5C1F4FC80140E050E060E070E00E94BB
:1043E000A971DE011596F8018BE101900D928150C3
:1043F000E1F7F70181A992A99C838B8389E895E075
:104400009A838983C70165E172E08E010F5F1F4FB8
:10441000A80120E030E015D9C8010E948F156F96E1
:104420000FB6F894DEBF0FBECDBFCF91DF911F91C5
:104430000F91FF90EF900895CF93DF93EC011BAAAB
:104440001EAA1AAA19AA89E895E098AB8FA7CC5A98
:10445000DF4F188223961882C755D040FE01E05BDB
:10446000FF4FCE5ADF4F19821882C255D040918338
:104470008083DE01A159BF4FFD0120E030E0482FCD
:10448000148217821382128240839183215E3F4FF0
:104490007F9681E02633380799F7C855DE4F89E1CA
:1044A000888323961882689618822B961882239602
:1044B0001882C15DD140FE01E653FE4FC453DE4F6A
:1044C0001982188240839183C155DF4F1882198267
:1044D0001A821B822896188219821A821B82C3585C
:1044E000D2401A821B8218821982CB55DE4F198264
:1044F0001882CC5BDF4F1882FD01C9011192019730
:10450000E9F7C256DF4F81E08883C758D2401EA624
:104510001DA60E94BDE3C158DD4F68577C4E8F4FEA
:104520009F4F688379838A839B83DF91CF9108951E
:10453000CF93DF93EC01DB01E6ECF5E06491E6EA72
:10454000F5E054917AE03EC0288139819C91F99937
:10455000FECF1FBA32BD21BD90BD0FB6F894FA9AB6
:10456000F99A0FBEF999FECF32BD21BDF89A80B5F8
:10457000891711F1962FE6ECF5E008C08091C00094
:1045800085FFFCCF9093C600319694919923B1F7A3
:10459000952FE6EAF5E008C08091C00085FFFCCFCA
:1045A0009093C600319694919923B1F78091C00001
:1045B00085FFFCCF7093C6002F5F3F4F3983288360
:1045C00011964150442309F0BFCFDF91CF91089558
:1045D0002F923F924F925F926F927F928F929F9213
:1045E000AF92BF92CF92DF92EF92FF920F931F9301
:1045F000DF93CF93CDB7DEB762970FB6F894DEBFE7
:104600000FBECDBF0F2EF0E0CF2EF0E0DF2EF0E09A
:10461000EF2EF0E0FF2EF02DCF82D886E986FA86C5
:104620008091160290911702A0911802B091190280
:104630008B879C87AD87BE8784E690E09A838983C9
:104640008E010F5F1F4FC801BE01655F7F4F44E0C1
:104650006FDFC80162E47BE040E16ADFC80162E32A
:104660007BE040E165DFC80162E57BE040E160DFBF
:10467000C80166E67BE044E05BDFC8016AE67BE0F8
:1046800044E056DFC8016EE67BE044E051DFC8013C
:1046900062E67BE044E04CDFC8016EE77BE044E08B
:1046A00047DFC8016EE27BE044E042DFC80162E719
:1046B0007BE044E03DDFC80166E77BE044E038DFB3
:1046C000C8016AE77BE044E033DFC80162E379E0D8
:1046D0004CE02EDFCF82D886E986FA8646E0E42ECB
:1046E000F12C37E0C32ED12CCC0EDD1E04C0C80146
:1046F000B60144E01DDF0894E108F1088FEFE816E9
:104700008FEFF806A1F7C80163E773E142E010DF1D
:10471000C80165E773E142E00BDFC80167E773E1B9
:1047200042E006DFC80169E773E142E001DFC8014A
:104730006BE773E142E0FCDEC8016DE773E142E044
:10474000F7DEC8016DE479E044E0F2DEEE24FF24F8
:104750006E010894C11CD11C0F2EF0E04F2EF0E822
:104760005F2EFBE36F2EF5E47F2EF02D27E0222E47
:10477000312C2C0E3D1E0F2EF0E08F2EF0E09F2EE0
:10478000F0E0AF2EF0E0BF2EF02D92E0E916F1043C
:10479000ACF4C6016BED74E044E0CADEC6016FED17
:1047A00074E044E0C5DEC60163EE74E044E0C0DEC0
:1047B000C60167EE74E044E0BBDE19C04F82588644
:1047C00069867A86C601B10144E0B2DE8F8298869E
:1047D000A986BA8603E010E004C0C601B10144E036
:1047E000A7DE01501040EFEF0F3F1E07B1F708940E
:1047F000E11CF11CF4E0EF16F10439F680E290E0E0
:104800009C838B838E010F5F1F4FC801BE016D5FBC
:104810007F4F42E08DDE80E090E0A0E8BFE38F8331
:104820009887A987BA8797E0892E912C8C0E9D1EB8
:10483000C801B40144E07CDEC80161E279E041E0F6
:1048400077DE8FE8C82E84E0D82EEE24FF24B02E29
:10485000012F82E0E816F1044CF4F6018081918189
:10486000A281B3818F839887A987BA878B2D902FD8
:10487000B40144E05DDE0894E11CF11C84E090E0AA
:10488000C80ED91E94E0E916F10419F780911A02B6
:1048900090911B02A0911C02B0911D028F87988BF2
:1048A000A98BBA8B84E690E09E838D83CE0105961A
:1048B000BE01615F7F4F44E03BDEE6ECF5E09491A2
:1048C00008C08091C00085FFFCCF9093C600319650
:1048D00094919923B1F749815A81662757FD6095D4
:1048E000762F84E995E00E944738ECE8F5E0949152
:1048F00008C08091C00085FFFCCF9093C600319620
:1049000094919923B1F78091C00085FFFCCF8AE094
:104910008093C60062960FB6F894DEBF0FBECDBF7F
:10492000CF91DF911F910F91FF90EF90DF90CF908B
:10493000BF90AF909F908F907F906F905F904F90BF
:104940003F902F9008951F93CF93DF93182FC6ECBD
:10495000D5E0FE01949108C08091C00085FFFCCF96
:104960009093C600319694919923B1F7112321F5C4
:10497000E5E3F5E0949108C08091C00085FFFCCF8D
:104980009093C600319694919923B1F78091C0001D
:1049900085FFFCCF8AE08093C600FE019491E6EC8F
:1049A000F5E008C08091C00085FFFCCF9093C60061
:1049B000319694919923B1F74091420B5091430B5A
:1049C0006091440B7091450B8DE295E00E94343864
:1049D0004091460B5091470B6091480B7091490BE9
:1049E0008AE295E00E94343840914A0B50914B0B7B
:1049F00060914C0B70914D0B87E295E00E9434382A
:104A000040914E0B50914F0B6091500B7091510B98
:104A100084E295E00E9434388091C00085FFFCCF8D
:104A20008AE08093C600FE019491E6ECF5E008C0B0
:104A30008091C00085FFFCCF9093C6003196949181
:104A40009923B1F7112321F5EAE0F5E0949108C02C
:104A50008091C00085FFFCCF9093C6003196949161
:104A60009923B1F78091C00085FFFCCF8AE0809345
:104A7000C600FE019491E6ECF5E008C08091C0000C
:104A800085FFFCCF9093C600319694919923B1F79E
:104A90004091320B5091330B6091340B7091350B78
:104AA00081E095E00E9434384091360B5091370BED
:104AB0006091380B7091390B8EEF94E00E9434387E
:104AC00040913A0B50913B0B60913C0B70913D0B28
:104AD0008BEF94E00E94343840913E0B50913F0B95
:104AE0006091400B7091410B88EF94E00E94343844
:104AF0008091C00085FFFCCF8AE08093C600FE0154
:104B00009491E6ECF5E008C08091C00085FFFCCFF1
:104B10009093C600319694919923B1F7112321F512
:104B2000EAEDF4E0949108C08091C00085FFFCCFCD
:104B30009093C600319694919923B1F78091C0006B
:104B400085FFFCCF8AE08093C600FE019491E6ECDD
:104B5000F5E008C08091C00085FFFCCF9093C600AF
:104B6000319694919923B1F74091520B5091530B88
:104B70006091540B7091550B81ED94E00E94473881
:104B80004091560B5091570B6091580B7091590BF7
:104B90008EEC94E00E94473840915A0B50915B0B89
:104BA00060915C0B70915D0B8BEC94E00E94473838
:104BB00040915E0B50915F0B6091600B7091610BA7
:104BC00088EC94E00E9447388091C00085FFFCCFBC
:104BD0008AE08093C600FE019491E6ECF5E008C0FF
:104BE0008091C00085FFFCCF9093C60031969491D0
:104BF0009923B1F7112321F5E6E9F4E0949108C077
:104C00008091C00085FFFCCF9093C60031969491AF
:104C10009923B1F78091C00085FFFCCF8AE0809393
:104C2000C600FE019491E6ECF5E008C08091C0005A
:104C300085FFFCCF9093C600319694919923B1F7EC
:104C40004091660B5091670B6091680B7091690BF6
:104C50008DE894E00E94343840916A0B50916B0BC0
:104C600060916C0B70916D0B8AE894E00E9434386F
:104C700040916E0B50916F0B6091700B7091710BA6
:104C800087E894E00E9434388091C00085FFFCCF13
:104C90008AE08093C600FE019491E6ECF5E008C03E
:104CA0008091C00085FFFCCF9093C600319694910F
:104CB0009923B1F7112321F5E4EDF3E0949108C0B5
:104CC0008091C00085FFFCCF9093C60031969491EF
:104CD0009923B1F78091C00085FFFCCF8AE08093D3
:104CE000C600FE019491E6ECF5E008C08091C0009A
:104CF00085FFFCCF9093C600319694919923B1F72C
:104D00004091620B5091630B6091640B7091650B45
:104D10008BEC93E00E94343840917E0B50917F0BD6
:104D20006091800B7091810B88EC93E00E94343885
:104D300040912E0B50912F0B6091300B7091310BE5
:104D400085EC93E00E9447384091720B5091730BB1
:104D50006091740B7091750B82EC93E00E94343873
:104D60004091760B5091770B6091780B7091790B95
:104D70008FEB93E00E94343840917A0B50917B0B7B
:104D800060917C0B70917D0B8CEB93E00E9434382A
:104D90008091C00085FFFCCF8AE08093C600FE01B1
:104DA0009491E6ECF5E008C08091C00085FFFCCF4F
:104DB0009093C600319694919923B1F7112321F570
:104DC000EAEAF3E0949108C08091C00085FFFCCF2F
:104DD0009093C600319694919923B1F78091C000C9
:104DE00085FFFCCF8AE08093C600FE019491E6EC3B
:104DF000F5E008C08091C00085FFFCCF9093C6000D
:104E0000319694919923B1F7409132095091330929
:104E1000609134097091350981EA93E00E94343839
:104E200040913609509137096091380970913909DC
:104E30008EE993E00E94343840913A0950913B0941
:104E400060913C0970913D098BE993E00E943438F0
:104E50008091C00085FFFCCF8AE08093C600FE01F0
:104E60009491E6ECF5E008C08091C00085FFFCCF8E
:104E70009093C600319694919923B1F7112321F5AF
:104E8000EDE8F3E0949108C08091C00085FFFCCF6D
:104E90009093C600319694919923B1F78091C00008
:104EA00085FFFCCF8AE08093C600FE019491E6EC7A
:104EB000F5E008C08091C00085FFFCCF9093C6004C
:104EC000319694919923B1F74091DB045091DC0421
:104ED0006091DD047091DE0483E893E00E94343831
:104EE0006091DF047091E0048091E1049091E2040C
:104EF0000E94018BAB01BC0180E893E00E94343832
:104F00006091E3047091E4048091E5049091E604DB
:104F10000E940D8BAB01BC018DE793E00E943438F9
:104F20008091C00085FFFCCF8AE08093C600FE011F
:104F30009491E6ECF5E008C08091C00085FFFCCFBD
:104F40009093C600319694919923B1F780912109ED
:104F5000882309F459C0112321F5EAE6F3E094917E
:104F600008C08091C00085FFFCCF9093C6003196A9
:104F700094919923B1F78091C00085FFFCCF8AE01E
:104F80008093C600FE019491E6ECF5E008C08091A4
:104F9000C00085FFFCCF9093C60031969491992371
:104FA000B1F740918F0450919004609191047091F9
:104FB000920480E693E00E9434388091C00085FF1F
:104FC000FCCF8AE08093C600FE019491E6ECF5E008
:104FD00008C08091C00085FFFCCF9093C600319639
:104FE00094919923B1F74091930450919404609166
:104FF00095047091960483E593E00E943438809183
:10500000C00085FFFCCF14C01123A9F4E7E3F3E04F
:10501000949108C08091C00085FFFCCF9093C6009A
:10502000319694919923B1F78091C00085FFFCCF10
:105030008AE08093C600FE019491E6ECF5E008C09A
:105040008091C00085FFFCCF9093C600319694916B
:105050009923B1F7112369F5E2E2F3E0949108C0D6
:105060008091C00085FFFCCF9093C600319694914B
:105070009923B1F78091C00085FFFCCF8AE080932F
:10508000C600FE019491E6ECF5E008C08091C000F6
:1050900085FFFCCF9093C600319694919923B1F788
:1050A00008C08091C00085FFFCCF31969093C60068
:1050B00002C0EEE1F2E09081992399F78CE896E046
:1050C00063E573E04AE050E047D640914D095091C6
:1050D0004E0960914F097091500970588FE193E02B
:1050E0000E9434388091C00085FFFCCF8AE0809315
:1050F000C600DF91CF911F910895DF93CF93CDB775
:10510000DEB7E4970FB6F894DEBF0FBECDBFDE0169
:105110001196E3E3F5E080E101900D928150E1F713
:10512000DE019196EFE1F5E084E101900D9281506E
:10513000E1F7DE015196EFE0F5E080E101900D929C
:105140008150E1F789819A81AB81BC818093420BC8
:105150009093430BA093440BB093450B89A19AA164
:10516000ABA1BCA18093320B9093330BA093340B73
:10517000B093350B89899A89AB89BC898093520B8E
:105180009093530BA093540BB093550B8D819E813C
:10519000AF81B8858093460B9093470BA093480B43
:1051A000B093490B8DA19EA1AFA1B8A58093360BFA
:1051B0009093370BA093380BB093390B8D899E8950
:1051C000AF89B88D8093560B9093570BA093580BD3
:1051D000B093590B89859A85AB85BC8580934A0B22
:1051E00090934B0BA0934C0BB0934D0B89A59AA5B4
:1051F000ABA5BCA580933A0B90933B0BA0933C0BC3
:10520000B0933D0B898D9A8DAB8DBC8D80935A0BDD
:1052100090935B0BA0935C0BB0935D0B8D859E858B
:10522000AF85B88980934E0B90934F0BA093500B92
:10523000B093510B8DA59EA5AFA5B8A980933E0B49
:1052400090933F0BA093400BB093410B8D8D9E8D9F
:10525000AF8DB8A180935E0B90935F0BA093600B12
:10526000B093610B0E94315D80E090E8ABE3B5E460
:105270008093660B9093670BA093680BB093690BB8
:1052800080936A0B90936B0BA0936C0BB0936D0B98
:1052900080936E0B90936F0BA093700BB093710B78
:1052A00020E030E040E050E02093620B3093630B4D
:1052B0004093640B5093650B80E29EE4A0E0B0E065
:1052C00080932E0B90932F0BA093300BB093310B48
:1052D00020937E0B30937F0B4093800B5093810B78
:1052E00080E090E0A0EAB1E48093720B9093730B9E
:1052F000A093740BB093750B8DEC9CECACECBEE3FF
:105300008093760B9093770BA093780BB093790BE7
:1053100080E090E0A0EAB0E480937A0B90937B0B5E
:10532000A0937C0BB0937D0B20933A0930933B09FB
:1053300040933C0950933D09209336093093370937
:105340004093380950933909209332093093330937
:1053500040933409509335098CED90E09093741389
:105360008093731386E490E0909376138093751383
:10537000109278131092771380EF90E090937A1345
:10538000809379138EE690E090937C1380937B1347
:1053900010927E1310927D138AE999E9A1EBB1E492
:1053A0008093DB049093DC04A093DD04B093DE04CF
:1053B00061E77DE38AE89FE30E94FB8A6093DF0454
:1053C0007093E0048093E1049093E20460E070E065
:1053D00084EE92E40E94078B6093E3047093E404EC
:1053E0008093E5049093E60480E090E0A0E8BFE3BA
:1053F0008093E7049093E804A093E904B093EA044F
:105400000E94F8891092210980E090E0A0E4B0E4C5
:1054100080938F0490939004A0939104B09392048E
:105420008093930490939404A0939504B09396046E
:105430004AD7E6ECF5E0949108C08091C00085FF62
:10544000FCCF9093C600319694919923B1F7E5E48F
:10545000F5E0949108C08091C00085FFFCCF909347
:10546000C600319694919923B1F78091C00085FFD1
:10547000FCCF8AE08093C600E4960FB6F894DEBFB6
:105480000FBECDBFCF91DF9108954F925F926F9283
:105490007F928F929F92AF92BF92CF92DF92EF92C4
:1054A000FF920F931F93DF93CF93CDB7DEB72E9765
:1054B0000FB6F894DEBF0FBECDBF80911A02909157
:1054C0001B02A0911C02B0911D028F839887A987AF
:1054D000BA87FE01339604E610E0F999FECF12BDBB
:1054E00001BDF89A80B580830F5F1F4F0836110504
:1054F00011F03196F2CFCE010796BE016D5F7F4F5E
:1055000043E050E00E948912009711F0F6DD91C24D
:1055100080E090E0A0E0B0E08B879C87AD87BE87FD
:10552000E2E4FBE0F999FECF12BD01BDF89A80B527
:1055300080830F5F1F4F0837110511F03196F2CFAE
:10554000E2E3FBE0F999FECF12BD01BDF89A80B508
:1055500080830F5F1F4F0838110511F03196F2CF8D
:10556000E2E5FBE0F999FECF12BD01BDF89A80B5E6
:1055700080830F5F1F4F0839110511F03196F2CF6C
:105580000E94315DE6E6FBE0F999FECF12BD01BD58
:10559000F89A80B580830F5F1F4F0C39110511F009
:1055A0003196F2CFEAE6FBE0F999FECF12BD01BDDC
:1055B000F89A80B580830F5F1F4F003A110511F0F4
:1055C0003196F2CFEEE6FBE0F999FECF12BD01BDB8
:1055D000F89A80B580830F5F1F4F043A110511F0D0
:1055E0003196F2CFE2E6FBE0F999FECF12BD01BDA4
:1055F000F89A80B580830F5F1F4F083A110511F0AC
:105600003196F2CFEEE7FBE0F999FECF12BD01BD76
:10561000F89A80B580830F5F1F4F0C3A110511F087
:105620003196F2CFEEE2FBE0F999FECF12BD01BD5B
:10563000F89A80B580830F5F1F4F003B110511F072
:105640003196F2CFE2E7FBE0F999FECF12BD01BD42
:10565000F89A80B580830F5F1F4F043B110511F04E
:105660003196F2CFE6E7FBE0F999FECF12BD01BD1E
:10567000F89A80B580830F5F1F4F083B110511F02A
:105680003196F2CFEAE7FBE0F999FECF12BD01BDFA
:10569000F89A80B580830F5F1F4F0C3B110511F006
:1056A0003196F2CFE2E3F9E0F999FECF12BD01BDE8
:1056B000F89A80B580830F5F1F4F083C110511F0E9
:1056C0003196F2CF7BE0472E512C4C0E5D1EAE0181
:1056D000425F5F4F32019801F999FECF32BD21BD83
:1056E000F89A80B5F30180832F5F3F4F64167506EB
:1056F00021F00894611C711CEFCF0C5F1F4F003E1E
:10570000110541F7E3E7F3E1F999FECF12BD01BDC1
:10571000F89A80B580830F5F1F4F023E110511F08C
:105720003196F2CFE5E7F3E1F999FECF12BD01BD65
:10573000F89A80B580830F5F1F4F043E110511F06A
:105740003196F2CFE7E7F3E1F999FECF12BD01BD43
:10575000F89A80B580830F5F1F4F063E110511F048
:105760003196F2CFE9E7F3E1F999FECF12BD01BD21
:10577000F89A80B580830F5F1F4F083E110511F026
:105780003196F2CFEBE7F3E1F999FECF12BD01BDFF
:10579000F89A80B580830F5F1F4F0A3E110511F004
:1057A0003196F2CFEDE7F3E1F999FECF12BD01BDDD
:1057B000F89A80B580830F5F1F4F0C3E110511F0E2
:1057C0003196F2CFEDE4F9E0F999FECF12BD01BDBB
:1057D000F89A80B580830F5F1F4F003F110511F0CD
:1057E0003196F2CF88249924A12C61E0B62E950140
:1057F00020513040F201F999FECF32BD21BDF89A17
:1058000080B580832F5F3F4FE615F70511F0319685
:10581000F2CF54EFC52E5FEFD52ECA0CDB1CF2E0A1
:105820008F1691040CF062C0EB84FC840D851E85FC
:10583000C801B70120E030E84BE355E40E944FEB8C
:10584000882309F453C0E092DB04F092DC04009357
:10585000DD041093DE04EFEDF4E0F999FECFD2BC45
:10586000C1BCF89A80B580830894C11CD11C84E027
:10587000E23EF80711F03196F0CF95012850304004
:10588000E3EEF4E0F999FECF32BD21BDF89A80B580
:1058900080832F5F3F4F94E0E63EF90711F0319689
:1058A000F1CF950124503040E7EEF4E0F999FECFB6
:1058B00032BD21BDF89A80B580832F5F3F4F84E0D1
:1058C000EA3EF807C9F03196F1CF3196F999FECF4B
:1058D00032BD21BDF89A80B580832F5F3F4FE6151A
:1058E000F70599F7E4E0F0E0CE0EDF1ECA14DB0402
:1058F00019F0F2019601EACF0894811C911C80E115
:1059000090E0A80EB91E94E08916910409F06FCFBB
:10591000FE01319620E331E0F999FECF32BD21BD81
:10592000F89A80B580832F5F3F4F81E0223338079C
:1059300011F03196F1CFF201F999FECF32BD21BDC0
:10594000F89A80B580832F5F3F4F91E02633390767
:1059500011F03196F1CFF999FECF86E391E092BD37
:1059600081BDF89A80B58093210960E070E047E33B
:1059700051E0F2019A01F999FECF32BD21BDF89AAA
:1059800080B580832F5F3F4FE615F70511F0319604
:10599000F2CF4C5F5F4F623071055CF4FA01EC5A54
:1059A000FC4F8B859C85AD85BE8580839183A283CA
:1059B000B3836F5F7F4F64307105D9F684D40E9442
:1059C000F889E6ECF5E0949108C08091C00085FF6D
:1059D000FCCF9093C600319694919923B1F7FE01C4
:1059E000379607C08091C00085FFFCCF3196909319
:1059F000C60090819923B1F78FE695E047E451E026
:105A000060E070E00E944738E7E6F5E0949108C056
:105A10008091C00085FFFCCF9093C6003196949191
:105A20009923B1F78091C00085FFFCCF8AE0809375
:105A3000C6002E960FB6F894DEBF0FBECDBFCF9135
:105A4000DF911F910F91FF90EF90DF90CF90BF906B
:105A5000AF909F908F907F906F905F904F90089540
:105A60001F920F920FB60F920BB60F9211242F9325
:105A70003F934F938F939F93EF93FF934091C60073
:105A8000E0918806F091890631969F012F7730705A
:105A9000319780918A0690918B062817390739F043
:105AA000E85FF94F40833093890620938806FF9181
:105AB000EF919F918F914F913F912F910F900BBE3E
:105AC0000F900FBE0F901F9018959A01AB012030D8
:105AD00081EE380780E0480780E0580749F182E00E
